{"contracts/EventContract.sol":{"EventContract":{"abi":[{"inputs":[{"internalType":"uint256","name":"id","type":"uint256"},{"internalType":"uint256","name":"quantity","type":"uint256"}],"name":"buyTicket","outputs":[],"stateMutability":"payable","type":"function"},{"inputs":[{"internalType":"string","name":"name","type":"string"},{"internalType":"string","name":"description","type":"string"},{"internalType":"uint256","name":"date","type":"uint256"},{"internalType":"uint256","name":"price","type":"uint256"},{"internalType":"uint256","name":"ticketCount","type":"uint256"},{"internalType":"string","name":"location","type":"string"},{"internalType":"string","name":"imageurl","type":"string"}],"name":"createEvent","outputs":[],"stateMutability":"nonpayable","type":"function"},{"inputs":[],"name":"getAllEvents","outputs":[{"components":[{"internalType":"uint256","name":"id","type":"uint256"},{"internalType":"address","name":"organizer","type":"address"},{"internalType":"string","name":"name","type":"string"},{"internalType":"uint256","name":"date","type":"uint256"},{"internalType":"uint256","name":"price","type":"uint256"},{"internalType":"uint256","name":"ticketCount","type":"uint256"},{"internalType":"uint256","name":"ticketRemain","type":"uint256"},{"internalType":"string","name":"location","type":"string"},{"internalType":"string","name":"description","type":"string"},{"internalType":"string","name":"imagepath","type":"string"}],"internalType":"struct EventContract.Event[]","name":"","type":"tuple[]"}],"stateMutability":"view","type":"function"},{"inputs":[],"name":"getMyEvents","outputs":[{"components":[{"internalType":"uint256","name":"id","type":"uint256"},{"internalType":"address","name":"organizer","type":"address"},{"internalType":"string","name":"name","type":"string"},{"internalType":"uint256","name":"date","type":"uint256"},{"internalType":"uint256","name":"price","type":"uint256"},{"internalType":"uint256","name":"ticketCount","type":"uint256"},{"internalType":"uint256","name":"ticketRemain","type":"uint256"},{"internalType":"string","name":"location","type":"string"},{"internalType":"string","name":"description","type":"string"},{"internalType":"string","name":"imagepath","type":"string"}],"internalType":"struct EventContract.Event[]","name":"","type":"tuple[]"}],"stateMutability":"view","type":"function"},{"inputs":[],"name":"getMyTickets","outputs":[{"components":[{"internalType":"uint256","name":"eventId","type":"uint256"},{"internalType":"address","name":"buyerId","type":"address"},{"internalType":"uint256","name":"numberOfTickets","type":"uint256"}],"internalType":"struct EventContract.Ticket[]","name":"","type":"tuple[]"}],"stateMutability":"view","type":"function"},{"inputs":[{"internalType":"uint256","name":"ticketId","type":"uint256"},{"internalType":"uint256","name":"eventId","type":"uint256"},{"internalType":"uint256","name":"quantity","type":"uint256"},{"internalType":"address","name":"to","type":"address"}],"name":"transferTickets","outputs":[],"stateMutability":"nonpayable","type":"function"}],"evm":{"bytecode":{"linkReferences":{},"object":"608060405234801561001057600080fd5b50612269806100206000396000f3fe6080604052600436106100555760003560e01c806304b8e0e01461005a578063298ec208146100835780633548124b1461009f57806385029b48146100ca578063c27a500d146100f3578063e1d10d851461011e575b600080fd5b34801561006657600080fd5b50610081600480360381019061007c919061149c565b610149565b005b61009d600480360381019061009891906115ae565b6104dc565b005b3480156100ab57600080fd5b506100b4610975565b6040516100c1919061186e565b60405180910390f35b3480156100d657600080fd5b506100f160048036038101906100ec91906118bc565b610ce1565b005b3480156100ff57600080fd5b50610108610f13565b604051610115919061186e565b60405180910390f35b34801561012a57600080fd5b50610133611243565b6040516101409190611a14565b60405180910390f35b42851161018b576040517f08c379a000000000000000000000000000000000000000000000000000000000815260040161018290611ab9565b60405180910390fd5b600083116101ce576040517f08c379a00000000000000000000000000000000000000000000000000000000081526004016101c590611b4b565b60405180910390fd5b60006001805490509050600085905060016040518061014001604052808481526020013373ffffffffffffffffffffffffffffffffffffffff1681526020018b81526020018981526020018381526020018781526020018781526020018681526020018a81526020018581525090806001815401808255809150506001900390600052602060002090600a02016000909190919091506000820151816000015560208201518160010160006101000a81548173ffffffffffffffffffffffffffffffffffffffff021916908373ffffffffffffffffffffffffffffffffffffffff16021790555060408201518160020190816102ca9190611d77565b50606082015181600301556080820151816004015560a0820151816005015560c0820151816006015560e08201518160070190816103089190611d77565b5061010082015181600801908161031f9190611d77565b506101208201518160090190816103369190611d77565b5050506000803373ffffffffffffffffffffffffffffffffffffffff1673ffffffffffffffffffffffffffffffffffffffff1681526020019081526020016000206040518061014001604052808481526020013373ffffffffffffffffffffffffffffffffffffffff1681526020018b81526020018981526020018381526020018781526020018781526020018681526020018a81526020018581525090806001815401808255809150506001900390600052602060002090600a02016000909190919091506000820151816000015560208201518160010160006101000a81548173ffffffffffffffffffffffffffffffffffffffff021916908373ffffffffffffffffffffffffffffffffffffffff16021790555060408201518160020190816104629190611d77565b50606082015181600301556080820151816004015560a0820151816005015560c0820151816006015560e08201518160070190816104a09190611d77565b506101008201518160080190816104b79190611d77565b506101208201518160090190816104ce9190611d77565b505050505050505050505050565b6000600183815481106104f2576104f1611e49565b5b90600052602060002090600a02016003015403610544576040517f08c379a000000000000000000000000000000000000000000000000000000000815260040161053b90611ec4565b60405180910390fd5b6001828154811061055857610557611e49565b5b90600052602060002090600a02016003015442106105ab576040517f08c379a00000000000000000000000000000000000000000000000000000000081526004016105a290611f30565b60405180910390fd5b6000600183815481106105c1576105c0611e49565b5b90600052602060002090600a020190508181600401546105e19190611f7f565b3414610622576040517f08c379a00000000000000000000000000000000000000000000000000000000081526004016106199061200d565b60405180910390fd5b8181600601541015610669576040517f08c379a000000000000000000000000000000000000000000000000000000000815260040161066090612079565b60405180910390fd5b60006001848154811061067f5761067e611e49565b5b90600052602060002090600a020160010160009054906101000a900473ffffffffffffffffffffffffffffffffffffffff1673ffffffffffffffffffffffffffffffffffffffff16346040516106d4906120ca565b60006040518083038185875af1925050503d8060008114610711576040519150601f19603f3d011682016040523d82523d6000602084013e610716565b606091505b505090508061075a576040517f08c379a00000000000000000000000000000000000000000000000000000000081526004016107519061212b565b60405180910390fd5b8282600601600082825461076e919061214b565b9250508190555060005b6000803373ffffffffffffffffffffffffffffffffffffffff1673ffffffffffffffffffffffffffffffffffffffff168152602001908152602001600020805490508110156108b557846000803373ffffffffffffffffffffffffffffffffffffffff1673ffffffffffffffffffffffffffffffffffffffff168152602001908152602001600020828154811061081257610811611e49565b5b90600052602060002090600a020160000154036108a257836000803373ffffffffffffffffffffffffffffffffffffffff1673ffffffffffffffffffffffffffffffffffffffff168152602001908152602001600020828154811061087a57610879611e49565b5b90600052602060002090600a0201600601600082825461089a919061214b565b925050819055505b80806108ad9061217f565b915050610778565b50600260405180606001604052808681526020013373ffffffffffffffffffffffffffffffffffffffff1681526020018581525090806001815401808255809150506001900390600052602060002090600302016000909190919091506000820151816000015560208201518160010160006101000a81548173ffffffffffffffffffffffffffffffffffffffff021916908373ffffffffffffffffffffffffffffffffffffffff16021790555060408201518160020155505050505050565b60606000803373ffffffffffffffffffffffffffffffffffffffff1673ffffffffffffffffffffffffffffffffffffffff168152602001908152602001600020805480602002602001604051908101604052809291908181526020016000905b82821015610cd857838290600052602060002090600a020160405180610140016040529081600082015481526020016001820160009054906101000a900473ffffffffffffffffffffffffffffffffffffffff1673ffffffffffffffffffffffffffffffffffffffff1673ffffffffffffffffffffffffffffffffffffffff168152602001600282018054610a6990611b9a565b80601f0160208091040260200160405190810160405280929190818152602001828054610a9590611b9a565b8015610ae25780601f10610ab757610100808354040283529160200191610ae2565b820191906000526020600020905b815481529060010190602001808311610ac557829003601f168201915b5050505050815260200160038201548152602001600482015481526020016005820154815260200160068201548152602001600782018054610b2390611b9a565b80601f0160208091040260200160405190810160405280929190818152602001828054610b4f90611b9a565b8015610b9c5780601f10610b7157610100808354040283529160200191610b9c565b820191906000526020600020905b815481529060010190602001808311610b7f57829003601f168201915b50505050508152602001600882018054610bb590611b9a565b80601f0160208091040260200160405190810160405280929190818152602001828054610be190611b9a565b8015610c2e5780601f10610c0357610100808354040283529160200191610c2e565b820191906000526020600020905b815481529060010190602001808311610c1157829003601f168201915b50505050508152602001600982018054610c4790611b9a565b80601f0160208091040260200160405190810160405280929190818152602001828054610c7390611b9a565b8015610cc05780601f10610c9557610100808354040283529160200191610cc0565b820191906000526020600020905b815481529060010190602001808311610ca357829003601f168201915b505050505081525050815260200190600101906109d5565b50505050905090565b600060018481548110610cf757610cf6611e49565b5b90600052602060002090600a02016003015403610d49576040517f08c379a0000000000000000000000000000000000000000000000000000000008152600401610d4090611ec4565b60405180910390fd5b60018381548110610d5d57610d5c611e49565b5b90600052602060002090600a0201600301544210610db0576040517f08c379a0000000000000000000000000000000000000000000000000000000008152600401610da790611f30565b60405180910390fd5b8160028581548110610dc557610dc4611e49565b5b9060005260206000209060030201600201541015610e18576040517f08c379a0000000000000000000000000000000000000000000000000000000008152600401610e0f90612213565b60405180910390fd5b8160028581548110610e2d57610e2c611e49565b5b90600052602060002090600302016002016000828254610e4d919061214b565b92505081905550600260405180606001604052808581526020018373ffffffffffffffffffffffffffffffffffffffff1681526020018481525090806001815401808255809150506001900390600052602060002090600302016000909190919091506000820151816000015560208201518160010160006101000a81548173ffffffffffffffffffffffffffffffffffffffff021916908373ffffffffffffffffffffffffffffffffffffffff16021790555060408201518160020155505050505050565b60606001805480602002602001604051908101604052809291908181526020016000905b8282101561123a57838290600052602060002090600a020160405180610140016040529081600082015481526020016001820160009054906101000a900473ffffffffffffffffffffffffffffffffffffffff1673ffffffffffffffffffffffffffffffffffffffff1673ffffffffffffffffffffffffffffffffffffffff168152602001600282018054610fcb90611b9a565b80601f0160208091040260200160405190810160405280929190818152602001828054610ff790611b9a565b80156110445780601f1061101957610100808354040283529160200191611044565b820191906000526020600020905b81548152906001019060200180831161102757829003601f168201915b505050505081526020016003820154815260200160048201548152602001600582015481526020016006820154815260200160078201805461108590611b9a565b80601f01602080910402602001604051908101604052809291908181526020018280546110b190611b9a565b80156110fe5780601f106110d3576101008083540402835291602001916110fe565b820191906000526020600020905b8154815290600101906020018083116110e157829003601f168201915b5050505050815260200160088201805461111790611b9a565b80601f016020809104026020016040519081016040528092919081815260200182805461114390611b9a565b80156111905780601f1061116557610100808354040283529160200191611190565b820191906000526020600020905b81548152906001019060200180831161117357829003601f168201915b505050505081526020016009820180546111a990611b9a565b80601f01602080910402602001604051908101604052809291908181526020018280546111d590611b9a565b80156112225780601f106111f757610100808354040283529160200191611222565b820191906000526020600020905b81548152906001019060200180831161120557829003601f168201915b50505050508152505081526020019060010190610f37565b50505050905090565b60606002805480602002602001604051908101604052809291908181526020016000905b828210156113035783829060005260206000209060030201604051806060016040529081600082015481526020016001820160009054906101000a900473ffffffffffffffffffffffffffffffffffffffff1673ffffffffffffffffffffffffffffffffffffffff1673ffffffffffffffffffffffffffffffffffffffff16815260200160028201548152505081526020019060010190611267565b50505050905090565b6000604051905090565b600080fd5b600080fd5b600080fd5b600080fd5b6000601f19601f8301169050919050565b7f4e487b7100000000000000000000000000000000000000000000000000000000600052604160045260246000fd5b6113738261132a565b810181811067ffffffffffffffff821117156113925761139161133b565b5b80604052505050565b60006113a561130c565b90506113b1828261136a565b919050565b600067ffffffffffffffff8211156113d1576113d061133b565b5b6113da8261132a565b9050602081019050919050565b82818337600083830152505050565b6000611409611404846113b6565b61139b565b90508281526020810184848401111561142557611424611325565b5b6114308482856113e7565b509392505050565b600082601f83011261144d5761144c611320565b5b813561145d8482602086016113f6565b91505092915050565b6000819050919050565b61147981611466565b811461148457600080fd5b50565b60008135905061149681611470565b92915050565b600080600080600080600060e0888a0312156114bb576114ba611316565b5b600088013567ffffffffffffffff8111156114d9576114d861131b565b5b6114e58a828b01611438565b975050602088013567ffffffffffffffff8111156115065761150561131b565b5b6115128a828b01611438565b96505060406115238a828b01611487565b95505060606115348a828b01611487565b94505060806115458a828b01611487565b93505060a088013567ffffffffffffffff8111156115665761156561131b565b5b6115728a828b01611438565b92505060c088013567ffffffffffffffff8111156115935761159261131b565b5b61159f8a828b01611438565b91505092959891949750929550565b600080604083850312156115c5576115c4611316565b5b60006115d385828601611487565b92505060206115e485828601611487565b9150509250929050565b600081519050919050565b600082825260208201905092915050565b6000819050602082019050919050565b61162381611466565b82525050565b600073ffffffffffffffffffffffffffffffffffffffff82169050919050565b600061165482611629565b9050919050565b61166481611649565b82525050565b600081519050919050565b600082825260208201905092915050565b60005b838110156116a4578082015181840152602081019050611689565b60008484015250505050565b60006116bb8261166a565b6116c58185611675565b93506116d5818560208601611686565b6116de8161132a565b840191505092915050565b600061014083016000830151611702600086018261161a565b506020830151611715602086018261165b565b506040830151848203604086015261172d82826116b0565b9150506060830151611742606086018261161a565b506080830151611755608086018261161a565b5060a083015161176860a086018261161a565b5060c083015161177b60c086018261161a565b5060e083015184820360e086015261179382826116b0565b9150506101008301518482036101008601526117af82826116b0565b9150506101208301518482036101208601526117cb82826116b0565b9150508091505092915050565b60006117e483836116e9565b905092915050565b6000602082019050919050565b6000611804826115ee565b61180e81856115f9565b9350836020820285016118208561160a565b8060005b8581101561185c578484038952815161183d85826117d8565b9450611848836117ec565b925060208a01995050600181019050611824565b50829750879550505050505092915050565b6000602082019050818103600083015261188881846117f9565b905092915050565b61189981611649565b81146118a457600080fd5b50565b6000813590506118b681611890565b92915050565b600080600080608085870312156118d6576118d5611316565b5b60006118e487828801611487565b94505060206118f587828801611487565b935050604061190687828801611487565b9250506060611917878288016118a7565b91505092959194509250565b600081519050919050565b600082825260208201905092915050565b6000819050602082019050919050565b606082016000820151611965600085018261161a565b506020820151611978602085018261165b565b50604082015161198b604085018261161a565b50505050565b600061199d838361194f565b60608301905092915050565b6000602082019050919050565b60006119c182611923565b6119cb818561192e565b93506119d68361193f565b8060005b83811015611a075781516119ee8882611991565b97506119f9836119a9565b9250506001810190506119da565b5085935050505092915050565b60006020820190508181036000830152611a2e81846119b6565b905092915050565b600082825260208201905092915050565b7f596f752063616e206f7267616e697a65206576656e7420666f7220667574757260008201527f6520646174650000000000000000000000000000000000000000000000000000602082015250565b6000611aa3602683611a36565b9150611aae82611a47565b604082019050919050565b60006020820190508181036000830152611ad281611a96565b9050919050565b7f596f752063616e206f7267616e697a65206576656e74206f6e6c79206966207960008201527f6f7520637265617465206d6f7265207468656e2030207469636b657473000000602082015250565b6000611b35603d83611a36565b9150611b4082611ad9565b604082019050919050565b60006020820190508181036000830152611b6481611b28565b9050919050565b7f4e487b7100000000000000000000000000000000000000000000000000000000600052602260045260246000fd5b60006002820490506001821680611bb257607f821691505b602082108103611bc557611bc4611b6b565b5b50919050565b60008190508160005260206000209050919050565b60006020601f8301049050919050565b600082821b905092915050565b600060088302611c2d7fffffffffffffffffffffffffffffffffffffffffffffffffffffffffffffffff82611bf0565b611c378683611bf0565b95508019841693508086168417925050509392505050565b6000819050919050565b6000611c74611c6f611c6a84611466565b611c4f565b611466565b9050919050565b6000819050919050565b611c8e83611c59565b611ca2611c9a82611c7b565b848454611bfd565b825550505050565b600090565b611cb7611caa565b611cc2818484611c85565b505050565b5b81811015611ce657611cdb600082611caf565b600181019050611cc8565b5050565b601f821115611d2b57611cfc81611bcb565b611d0584611be0565b81016020851015611d14578190505b611d28611d2085611be0565b830182611cc7565b50505b505050565b600082821c905092915050565b6000611d4e60001984600802611d30565b1980831691505092915050565b6000611d678383611d3d565b9150826002028217905092915050565b611d808261166a565b67ffffffffffffffff811115611d9957611d9861133b565b5b611da38254611b9a565b611dae828285611cea565b600060209050601f831160018114611de15760008415611dcf578287015190505b611dd98582611d5b565b865550611e41565b601f198416611def86611bcb565b60005b82811015611e1757848901518255600182019150602085019450602081019050611df2565b86831015611e345784890151611e30601f891682611d3d565b8355505b6001600288020188555050505b505050505050565b7f4e487b7100000000000000000000000000000000000000000000000000000000600052603260045260246000fd5b7f4576656e7420646f6573206e6f74206578697374000000000000000000000000600082015250565b6000611eae601483611a36565b9150611eb982611e78565b602082019050919050565b60006020820190508181036000830152611edd81611ea1565b9050919050565b7f4576656e742068617320616c7265616479206f63637572650000000000000000600082015250565b6000611f1a601883611a36565b9150611f2582611ee4565b602082019050919050565b60006020820190508181036000830152611f4981611f0d565b9050919050565b7f4e487b7100000000000000000000000000000000000000000000000000000000600052601160045260246000fd5b6000611f8a82611466565b9150611f9583611466565b9250828202611fa381611466565b91508282048414831517611fba57611fb9611f50565b5b5092915050565b7f4574686572206973206e6f7420656e6f75676800000000000000000000000000600082015250565b6000611ff7601383611a36565b915061200282611fc1565b602082019050919050565b6000602082019050818103600083015261202681611fea565b9050919050565b7f6e6f7420656e6f756768207469636b6574730000000000000000000000000000600082015250565b6000612063601283611a36565b915061206e8261202d565b602082019050919050565b6000602082019050818103600083015261209281612056565b9050919050565b600081905092915050565b50565b60006120b4600083612099565b91506120bf826120a4565b600082019050919050565b60006120d5826120a7565b9150819050919050565b7f4661696c656420746f2073656e64204574686572000000000000000000000000600082015250565b6000612115601483611a36565b9150612120826120df565b602082019050919050565b6000602082019050818103600083015261214481612108565b9050919050565b600061215682611466565b915061216183611466565b925082820390508181111561217957612178611f50565b5b92915050565b600061218a82611466565b91507fffffffffffffffffffffffffffffffffffffffffffffffffffffffffffffffff82036121bc576121bb611f50565b5b600182019050919050565b7f596f7520646f206e6f74206861766520656e6f756768207469636b6574730000600082015250565b60006121fd601e83611a36565b9150612208826121c7565b602082019050919050565b6000602082019050818103600083015261222c816121f0565b905091905056fea2646970667358221220601d786b1dc223533713c0f5bcddda48c343aac0ba14e699f31d1bc61603aa5e64736f6c63430008120033","opcodes":"PUSH1 0x80 PUSH1 0x40 MSTORE CALLVALUE DUP1 ISZERO PUSH2 0x10 JUMPI PUSH1 0x0 DUP1 REVERT JUMPDEST POP PUSH2 0x2269 DUP1 PUSH2 0x20 PUSH1 0x0 CODECOPY PUSH1 0x0 RETURN INVALID PUSH1 0x80 PUSH1 0x40 MSTORE PUSH1 0x4 CALLDATASIZE LT PUSH2 0x55 JUMPI PUSH1 0x0 CALLDATALOAD PUSH1 0xE0 SHR DUP1 PUSH4 0x4B8E0E0 EQ PUSH2 0x5A JUMPI DUP1 PUSH4 0x298EC208 EQ PUSH2 0x83 JUMPI DUP1 PUSH4 0x3548124B EQ PUSH2 0x9F JUMPI DUP1 PUSH4 0x85029B48 EQ PUSH2 0xCA JUMPI DUP1 PUSH4 0xC27A500D EQ PUSH2 0xF3 JUMPI DUP1 PUSH4 0xE1D10D85 EQ PUSH2 0x11E JUMPI JUMPDEST PUSH1 0x0 DUP1 REVERT JUMPDEST CALLVALUE DUP1 ISZERO PUSH2 0x66 JUMPI PUSH1 0x0 DUP1 REVERT JUMPDEST POP PUSH2 0x81 PUSH1 0x4 DUP1 CALLDATASIZE SUB DUP2 ADD SWAP1 PUSH2 0x7C SWAP2 SWAP1 PUSH2 0x149C JUMP JUMPDEST PUSH2 0x149 JUMP JUMPDEST STOP JUMPDEST PUSH2 0x9D PUSH1 0x4 DUP1 CALLDATASIZE SUB DUP2 ADD SWAP1 PUSH2 0x98 SWAP2 SWAP1 PUSH2 0x15AE JUMP JUMPDEST PUSH2 0x4DC JUMP JUMPDEST STOP JUMPDEST CALLVALUE DUP1 ISZERO PUSH2 0xAB JUMPI PUSH1 0x0 DUP1 REVERT JUMPDEST POP PUSH2 0xB4 PUSH2 0x975 JUMP JUMPDEST PUSH1 0x40 MLOAD PUSH2 0xC1 SWAP2 SWAP1 PUSH2 0x186E JUMP JUMPDEST PUSH1 0x40 MLOAD DUP1 SWAP2 SUB SWAP1 RETURN JUMPDEST CALLVALUE DUP1 ISZERO PUSH2 0xD6 JUMPI PUSH1 0x0 DUP1 REVERT JUMPDEST POP PUSH2 0xF1 PUSH1 0x4 DUP1 CALLDATASIZE SUB DUP2 ADD SWAP1 PUSH2 0xEC SWAP2 SWAP1 PUSH2 0x18BC JUMP JUMPDEST PUSH2 0xCE1 JUMP JUMPDEST STOP JUMPDEST CALLVALUE DUP1 ISZERO PUSH2 0xFF JUMPI PUSH1 0x0 DUP1 REVERT JUMPDEST POP PUSH2 0x108 PUSH2 0xF13 JUMP JUMPDEST PUSH1 0x40 MLOAD PUSH2 0x115 SWAP2 SWAP1 PUSH2 0x186E JUMP JUMPDEST PUSH1 0x40 MLOAD DUP1 SWAP2 SUB SWAP1 RETURN JUMPDEST CALLVALUE DUP1 ISZERO PUSH2 0x12A JUMPI PUSH1 0x0 DUP1 REVERT JUMPDEST POP PUSH2 0x133 PUSH2 0x1243 JUMP JUMPDEST PUSH1 0x40 MLOAD PUSH2 0x140 SWAP2 SWAP1 PUSH2 0x1A14 JUMP JUMPDEST PUSH1 0x40 MLOAD DUP1 SWAP2 SUB SWAP1 RETURN JUMPDEST TIMESTAMP DUP6 GT PUSH2 0x18B JUMPI PUSH1 0x40 MLOAD PUSH32 0x8C379A000000000000000000000000000000000000000000000000000000000 DUP2 MSTORE PUSH1 0x4 ADD PUSH2 0x182 SWAP1 PUSH2 0x1AB9 JUMP JUMPDEST PUSH1 0x40 MLOAD DUP1 SWAP2 SUB SWAP1 REVERT JUMPDEST PUSH1 0x0 DUP4 GT PUSH2 0x1CE JUMPI PUSH1 0x40 MLOAD PUSH32 0x8C379A000000000000000000000000000000000000000000000000000000000 DUP2 MSTORE PUSH1 0x4 ADD PUSH2 0x1C5 SWAP1 PUSH2 0x1B4B JUMP JUMPDEST PUSH1 0x40 MLOAD DUP1 SWAP2 SUB SWAP1 REVERT JUMPDEST PUSH1 0x0 PUSH1 0x1 DUP1 SLOAD SWAP1 POP SWAP1 POP PUSH1 0x0 DUP6 SWAP1 POP PUSH1 0x1 PUSH1 0x40 MLOAD DUP1 PUSH2 0x140 ADD PUSH1 0x40 MSTORE DUP1 DUP5 DUP2 MSTORE PUSH1 0x20 ADD CALLER PUSH20 0xFFFFFFFFFFFFFFFFFFFFFFFFFFFFFFFFFFFFFFFF AND DUP2 MSTORE PUSH1 0x20 ADD DUP12 DUP2 MSTORE PUSH1 0x20 ADD DUP10 DUP2 MSTORE PUSH1 0x20 ADD DUP4 DUP2 MSTORE PUSH1 0x20 ADD DUP8 DUP2 MSTORE PUSH1 0x20 ADD DUP8 DUP2 MSTORE PUSH1 0x20 ADD DUP7 DUP2 MSTORE PUSH1 0x20 ADD DUP11 DUP2 MSTORE PUSH1 0x20 ADD DUP6 DUP2 MSTORE POP SWAP1 DUP1 PUSH1 0x1 DUP2 SLOAD ADD DUP1 DUP3 SSTORE DUP1 SWAP2 POP POP PUSH1 0x1 SWAP1 SUB SWAP1 PUSH1 0x0 MSTORE PUSH1 0x20 PUSH1 0x0 KECCAK256 SWAP1 PUSH1 0xA MUL ADD PUSH1 0x0 SWAP1 SWAP2 SWAP1 SWAP2 SWAP1 SWAP2 POP PUSH1 0x0 DUP3 ADD MLOAD DUP2 PUSH1 0x0 ADD SSTORE PUSH1 0x20 DUP3 ADD MLOAD DUP2 PUSH1 0x1 ADD PUSH1 0x0 PUSH2 0x100 EXP DUP2 SLOAD DUP2 PUSH20 0xFFFFFFFFFFFFFFFFFFFFFFFFFFFFFFFFFFFFFFFF MUL NOT AND SWAP1 DUP4 PUSH20 0xFFFFFFFFFFFFFFFFFFFFFFFFFFFFFFFFFFFFFFFF AND MUL OR SWAP1 SSTORE POP PUSH1 0x40 DUP3 ADD MLOAD DUP2 PUSH1 0x2 ADD SWAP1 DUP2 PUSH2 0x2CA SWAP2 SWAP1 PUSH2 0x1D77 JUMP JUMPDEST POP PUSH1 0x60 DUP3 ADD MLOAD DUP2 PUSH1 0x3 ADD SSTORE PUSH1 0x80 DUP3 ADD MLOAD DUP2 PUSH1 0x4 ADD SSTORE PUSH1 0xA0 DUP3 ADD MLOAD DUP2 PUSH1 0x5 ADD SSTORE PUSH1 0xC0 DUP3 ADD MLOAD DUP2 PUSH1 0x6 ADD SSTORE PUSH1 0xE0 DUP3 ADD MLOAD DUP2 PUSH1 0x7 ADD SWAP1 DUP2 PUSH2 0x308 SWAP2 SWAP1 PUSH2 0x1D77 JUMP JUMPDEST POP PUSH2 0x100 DUP3 ADD MLOAD DUP2 PUSH1 0x8 ADD SWAP1 DUP2 PUSH2 0x31F SWAP2 SWAP1 PUSH2 0x1D77 JUMP JUMPDEST POP PUSH2 0x120 DUP3 ADD MLOAD DUP2 PUSH1 0x9 ADD SWAP1 DUP2 PUSH2 0x336 SWAP2 SWAP1 PUSH2 0x1D77 JUMP JUMPDEST POP POP POP PUSH1 0x0 DUP1 CALLER PUSH20 0xFFFFFFFFFFFFFFFFFFFFFFFFFFFFFFFFFFFFFFFF AND PUSH20 0xFFFFFFFFFFFFFFFFFFFFFFFFFFFFFFFFFFFFFFFF AND DUP2 MSTORE PUSH1 0x20 ADD SWAP1 DUP2 MSTORE PUSH1 0x20 ADD PUSH1 0x0 KECCAK256 PUSH1 0x40 MLOAD DUP1 PUSH2 0x140 ADD PUSH1 0x40 MSTORE DUP1 DUP5 DUP2 MSTORE PUSH1 0x20 ADD CALLER PUSH20 0xFFFFFFFFFFFFFFFFFFFFFFFFFFFFFFFFFFFFFFFF AND DUP2 MSTORE PUSH1 0x20 ADD DUP12 DUP2 MSTORE PUSH1 0x20 ADD DUP10 DUP2 MSTORE PUSH1 0x20 ADD DUP4 DUP2 MSTORE PUSH1 0x20 ADD DUP8 DUP2 MSTORE PUSH1 0x20 ADD DUP8 DUP2 MSTORE PUSH1 0x20 ADD DUP7 DUP2 MSTORE PUSH1 0x20 ADD DUP11 DUP2 MSTORE PUSH1 0x20 ADD DUP6 DUP2 MSTORE POP SWAP1 DUP1 PUSH1 0x1 DUP2 SLOAD ADD DUP1 DUP3 SSTORE DUP1 SWAP2 POP POP PUSH1 0x1 SWAP1 SUB SWAP1 PUSH1 0x0 MSTORE PUSH1 0x20 PUSH1 0x0 KECCAK256 SWAP1 PUSH1 0xA MUL ADD PUSH1 0x0 SWAP1 SWAP2 SWAP1 SWAP2 SWAP1 SWAP2 POP PUSH1 0x0 DUP3 ADD MLOAD DUP2 PUSH1 0x0 ADD SSTORE PUSH1 0x20 DUP3 ADD MLOAD DUP2 PUSH1 0x1 ADD PUSH1 0x0 PUSH2 0x100 EXP DUP2 SLOAD DUP2 PUSH20 0xFFFFFFFFFFFFFFFFFFFFFFFFFFFFFFFFFFFFFFFF MUL NOT AND SWAP1 DUP4 PUSH20 0xFFFFFFFFFFFFFFFFFFFFFFFFFFFFFFFFFFFFFFFF AND MUL OR SWAP1 SSTORE POP PUSH1 0x40 DUP3 ADD MLOAD DUP2 PUSH1 0x2 ADD SWAP1 DUP2 PUSH2 0x462 SWAP2 SWAP1 PUSH2 0x1D77 JUMP JUMPDEST POP PUSH1 0x60 DUP3 ADD MLOAD DUP2 PUSH1 0x3 ADD SSTORE PUSH1 0x80 DUP3 ADD MLOAD DUP2 PUSH1 0x4 ADD SSTORE PUSH1 0xA0 DUP3 ADD MLOAD DUP2 PUSH1 0x5 ADD SSTORE PUSH1 0xC0 DUP3 ADD MLOAD DUP2 PUSH1 0x6 ADD SSTORE PUSH1 0xE0 DUP3 ADD MLOAD DUP2 PUSH1 0x7 ADD SWAP1 DUP2 PUSH2 0x4A0 SWAP2 SWAP1 PUSH2 0x1D77 JUMP JUMPDEST POP PUSH2 0x100 DUP3 ADD MLOAD DUP2 PUSH1 0x8 ADD SWAP1 DUP2 PUSH2 0x4B7 SWAP2 SWAP1 PUSH2 0x1D77 JUMP JUMPDEST POP PUSH2 0x120 DUP3 ADD MLOAD DUP2 PUSH1 0x9 ADD SWAP1 DUP2 PUSH2 0x4CE SWAP2 SWAP1 PUSH2 0x1D77 JUMP JUMPDEST POP POP POP POP POP POP POP POP POP POP POP POP JUMP JUMPDEST PUSH1 0x0 PUSH1 0x1 DUP4 DUP2 SLOAD DUP2 LT PUSH2 0x4F2 JUMPI PUSH2 0x4F1 PUSH2 0x1E49 JUMP JUMPDEST JUMPDEST SWAP1 PUSH1 0x0 MSTORE PUSH1 0x20 PUSH1 0x0 KECCAK256 SWAP1 PUSH1 0xA MUL ADD PUSH1 0x3 ADD SLOAD SUB PUSH2 0x544 JUMPI PUSH1 0x40 MLOAD PUSH32 0x8C379A000000000000000000000000000000000000000000000000000000000 DUP2 MSTORE PUSH1 0x4 ADD PUSH2 0x53B SWAP1 PUSH2 0x1EC4 JUMP JUMPDEST PUSH1 0x40 MLOAD DUP1 SWAP2 SUB SWAP1 REVERT JUMPDEST PUSH1 0x1 DUP3 DUP2 SLOAD DUP2 LT PUSH2 0x558 JUMPI PUSH2 0x557 PUSH2 0x1E49 JUMP JUMPDEST JUMPDEST SWAP1 PUSH1 0x0 MSTORE PUSH1 0x20 PUSH1 0x0 KECCAK256 SWAP1 PUSH1 0xA MUL ADD PUSH1 0x3 ADD SLOAD TIMESTAMP LT PUSH2 0x5AB JUMPI PUSH1 0x40 MLOAD PUSH32 0x8C379A000000000000000000000000000000000000000000000000000000000 DUP2 MSTORE PUSH1 0x4 ADD PUSH2 0x5A2 SWAP1 PUSH2 0x1F30 JUMP JUMPDEST PUSH1 0x40 MLOAD DUP1 SWAP2 SUB SWAP1 REVERT JUMPDEST PUSH1 0x0 PUSH1 0x1 DUP4 DUP2 SLOAD DUP2 LT PUSH2 0x5C1 JUMPI PUSH2 0x5C0 PUSH2 0x1E49 JUMP JUMPDEST JUMPDEST SWAP1 PUSH1 0x0 MSTORE PUSH1 0x20 PUSH1 0x0 KECCAK256 SWAP1 PUSH1 0xA MUL ADD SWAP1 POP DUP2 DUP2 PUSH1 0x4 ADD SLOAD PUSH2 0x5E1 SWAP2 SWAP1 PUSH2 0x1F7F JUMP JUMPDEST CALLVALUE EQ PUSH2 0x622 JUMPI PUSH1 0x40 MLOAD PUSH32 0x8C379A000000000000000000000000000000000000000000000000000000000 DUP2 MSTORE PUSH1 0x4 ADD PUSH2 0x619 SWAP1 PUSH2 0x200D JUMP JUMPDEST PUSH1 0x40 MLOAD DUP1 SWAP2 SUB SWAP1 REVERT JUMPDEST DUP2 DUP2 PUSH1 0x6 ADD SLOAD LT ISZERO PUSH2 0x669 JUMPI PUSH1 0x40 MLOAD PUSH32 0x8C379A000000000000000000000000000000000000000000000000000000000 DUP2 MSTORE PUSH1 0x4 ADD PUSH2 0x660 SWAP1 PUSH2 0x2079 JUMP JUMPDEST PUSH1 0x40 MLOAD DUP1 SWAP2 SUB SWAP1 REVERT JUMPDEST PUSH1 0x0 PUSH1 0x1 DUP5 DUP2 SLOAD DUP2 LT PUSH2 0x67F JUMPI PUSH2 0x67E PUSH2 0x1E49 JUMP JUMPDEST JUMPDEST SWAP1 PUSH1 0x0 MSTORE PUSH1 0x20 PUSH1 0x0 KECCAK256 SWAP1 PUSH1 0xA MUL ADD PUSH1 0x1 ADD PUSH1 0x0 SWAP1 SLOAD SWAP1 PUSH2 0x100 EXP SWAP1 DIV PUSH20 0xFFFFFFFFFFFFFFFFFFFFFFFFFFFFFFFFFFFFFFFF AND PUSH20 0xFFFFFFFFFFFFFFFFFFFFFFFFFFFFFFFFFFFFFFFF AND CALLVALUE PUSH1 0x40 MLOAD PUSH2 0x6D4 SWAP1 PUSH2 0x20CA JUMP JUMPDEST PUSH1 0x0 PUSH1 0x40 MLOAD DUP1 DUP4 SUB DUP2 DUP6 DUP8 GAS CALL SWAP3 POP POP POP RETURNDATASIZE DUP1 PUSH1 0x0 DUP2 EQ PUSH2 0x711 JUMPI PUSH1 0x40 MLOAD SWAP2 POP PUSH1 0x1F NOT PUSH1 0x3F RETURNDATASIZE ADD AND DUP3 ADD PUSH1 0x40 MSTORE RETURNDATASIZE DUP3 MSTORE RETURNDATASIZE PUSH1 0x0 PUSH1 0x20 DUP5 ADD RETURNDATACOPY PUSH2 0x716 JUMP JUMPDEST PUSH1 0x60 SWAP2 POP JUMPDEST POP POP SWAP1 POP DUP1 PUSH2 0x75A JUMPI PUSH1 0x40 MLOAD PUSH32 0x8C379A000000000000000000000000000000000000000000000000000000000 DUP2 MSTORE PUSH1 0x4 ADD PUSH2 0x751 SWAP1 PUSH2 0x212B JUMP JUMPDEST PUSH1 0x40 MLOAD DUP1 SWAP2 SUB SWAP1 REVERT JUMPDEST DUP3 DUP3 PUSH1 0x6 ADD PUSH1 0x0 DUP3 DUP3 SLOAD PUSH2 0x76E SWAP2 SWAP1 PUSH2 0x214B JUMP JUMPDEST SWAP3 POP POP DUP2 SWAP1 SSTORE POP PUSH1 0x0 JUMPDEST PUSH1 0x0 DUP1 CALLER PUSH20 0xFFFFFFFFFFFFFFFFFFFFFFFFFFFFFFFFFFFFFFFF AND PUSH20 0xFFFFFFFFFFFFFFFFFFFFFFFFFFFFFFFFFFFFFFFF AND DUP2 MSTORE PUSH1 0x20 ADD SWAP1 DUP2 MSTORE PUSH1 0x20 ADD PUSH1 0x0 KECCAK256 DUP1 SLOAD SWAP1 POP DUP2 LT ISZERO PUSH2 0x8B5 JUMPI DUP5 PUSH1 0x0 DUP1 CALLER PUSH20 0xFFFFFFFFFFFFFFFFFFFFFFFFFFFFFFFFFFFFFFFF AND PUSH20 0xFFFFFFFFFFFFFFFFFFFFFFFFFFFFFFFFFFFFFFFF AND DUP2 MSTORE PUSH1 0x20 ADD SWAP1 DUP2 MSTORE PUSH1 0x20 ADD PUSH1 0x0 KECCAK256 DUP3 DUP2 SLOAD DUP2 LT PUSH2 0x812 JUMPI PUSH2 0x811 PUSH2 0x1E49 JUMP JUMPDEST JUMPDEST SWAP1 PUSH1 0x0 MSTORE PUSH1 0x20 PUSH1 0x0 KECCAK256 SWAP1 PUSH1 0xA MUL ADD PUSH1 0x0 ADD SLOAD SUB PUSH2 0x8A2 JUMPI DUP4 PUSH1 0x0 DUP1 CALLER PUSH20 0xFFFFFFFFFFFFFFFFFFFFFFFFFFFFFFFFFFFFFFFF AND PUSH20 0xFFFFFFFFFFFFFFFFFFFFFFFFFFFFFFFFFFFFFFFF AND DUP2 MSTORE PUSH1 0x20 ADD SWAP1 DUP2 MSTORE PUSH1 0x20 ADD PUSH1 0x0 KECCAK256 DUP3 DUP2 SLOAD DUP2 LT PUSH2 0x87A JUMPI PUSH2 0x879 PUSH2 0x1E49 JUMP JUMPDEST JUMPDEST SWAP1 PUSH1 0x0 MSTORE PUSH1 0x20 PUSH1 0x0 KECCAK256 SWAP1 PUSH1 0xA MUL ADD PUSH1 0x6 ADD PUSH1 0x0 DUP3 DUP3 SLOAD PUSH2 0x89A SWAP2 SWAP1 PUSH2 0x214B JUMP JUMPDEST SWAP3 POP POP DUP2 SWAP1 SSTORE POP JUMPDEST DUP1 DUP1 PUSH2 0x8AD SWAP1 PUSH2 0x217F JUMP JUMPDEST SWAP2 POP POP PUSH2 0x778 JUMP JUMPDEST POP PUSH1 0x2 PUSH1 0x40 MLOAD DUP1 PUSH1 0x60 ADD PUSH1 0x40 MSTORE DUP1 DUP7 DUP2 MSTORE PUSH1 0x20 ADD CALLER PUSH20 0xFFFFFFFFFFFFFFFFFFFFFFFFFFFFFFFFFFFFFFFF AND DUP2 MSTORE PUSH1 0x20 ADD DUP6 DUP2 MSTORE POP SWAP1 DUP1 PUSH1 0x1 DUP2 SLOAD ADD DUP1 DUP3 SSTORE DUP1 SWAP2 POP POP PUSH1 0x1 SWAP1 SUB SWAP1 PUSH1 0x0 MSTORE PUSH1 0x20 PUSH1 0x0 KECCAK256 SWAP1 PUSH1 0x3 MUL ADD PUSH1 0x0 SWAP1 SWAP2 SWAP1 SWAP2 SWAP1 SWAP2 POP PUSH1 0x0 DUP3 ADD MLOAD DUP2 PUSH1 0x0 ADD SSTORE PUSH1 0x20 DUP3 ADD MLOAD DUP2 PUSH1 0x1 ADD PUSH1 0x0 PUSH2 0x100 EXP DUP2 SLOAD DUP2 PUSH20 0xFFFFFFFFFFFFFFFFFFFFFFFFFFFFFFFFFFFFFFFF MUL NOT AND SWAP1 DUP4 PUSH20 0xFFFFFFFFFFFFFFFFFFFFFFFFFFFFFFFFFFFFFFFF AND MUL OR SWAP1 SSTORE POP PUSH1 0x40 DUP3 ADD MLOAD DUP2 PUSH1 0x2 ADD SSTORE POP POP POP POP POP POP JUMP JUMPDEST PUSH1 0x60 PUSH1 0x0 DUP1 CALLER PUSH20 0xFFFFFFFFFFFFFFFFFFFFFFFFFFFFFFFFFFFFFFFF AND PUSH20 0xFFFFFFFFFFFFFFFFFFFFFFFFFFFFFFFFFFFFFFFF AND DUP2 MSTORE PUSH1 0x20 ADD SWAP1 DUP2 MSTORE PUSH1 0x20 ADD PUSH1 0x0 KECCAK256 DUP1 SLOAD DUP1 PUSH1 0x20 MUL PUSH1 0x20 ADD PUSH1 0x40 MLOAD SWAP1 DUP2 ADD PUSH1 0x40 MSTORE DUP1 SWAP3 SWAP2 SWAP1 DUP2 DUP2 MSTORE PUSH1 0x20 ADD PUSH1 0x0 SWAP1 JUMPDEST DUP3 DUP3 LT ISZERO PUSH2 0xCD8 JUMPI DUP4 DUP3 SWAP1 PUSH1 0x0 MSTORE PUSH1 0x20 PUSH1 0x0 KECCAK256 SWAP1 PUSH1 0xA MUL ADD PUSH1 0x40 MLOAD DUP1 PUSH2 0x140 ADD PUSH1 0x40 MSTORE SWAP1 DUP2 PUSH1 0x0 DUP3 ADD SLOAD DUP2 MSTORE PUSH1 0x20 ADD PUSH1 0x1 DUP3 ADD PUSH1 0x0 SWAP1 SLOAD SWAP1 PUSH2 0x100 EXP SWAP1 DIV PUSH20 0xFFFFFFFFFFFFFFFFFFFFFFFFFFFFFFFFFFFFFFFF AND PUSH20 0xFFFFFFFFFFFFFFFFFFFFFFFFFFFFFFFFFFFFFFFF AND PUSH20 0xFFFFFFFFFFFFFFFFFFFFFFFFFFFFFFFFFFFFFFFF AND DUP2 MSTORE PUSH1 0x20 ADD PUSH1 0x2 DUP3 ADD DUP1 SLOAD PUSH2 0xA69 SWAP1 PUSH2 0x1B9A JUMP JUMPDEST DUP1 PUSH1 0x1F ADD PUSH1 0x20 DUP1 SWAP2 DIV MUL PUSH1 0x20 ADD PUSH1 0x40 MLOAD SWAP1 DUP2 ADD PUSH1 0x40 MSTORE DUP1 SWAP3 SWAP2 SWAP1 DUP2 DUP2 MSTORE PUSH1 0x20 ADD DUP3 DUP1 SLOAD PUSH2 0xA95 SWAP1 PUSH2 0x1B9A JUMP JUMPDEST DUP1 ISZERO PUSH2 0xAE2 JUMPI DUP1 PUSH1 0x1F LT PUSH2 0xAB7 JUMPI PUSH2 0x100 DUP1 DUP4 SLOAD DIV MUL DUP4 MSTORE SWAP2 PUSH1 0x20 ADD SWAP2 PUSH2 0xAE2 JUMP JUMPDEST DUP3 ADD SWAP2 SWAP1 PUSH1 0x0 MSTORE PUSH1 0x20 PUSH1 0x0 KECCAK256 SWAP1 JUMPDEST DUP2 SLOAD DUP2 MSTORE SWAP1 PUSH1 0x1 ADD SWAP1 PUSH1 0x20 ADD DUP1 DUP4 GT PUSH2 0xAC5 JUMPI DUP3 SWAP1 SUB PUSH1 0x1F AND DUP3 ADD SWAP2 JUMPDEST POP POP POP POP POP DUP2 MSTORE PUSH1 0x20 ADD PUSH1 0x3 DUP3 ADD SLOAD DUP2 MSTORE PUSH1 0x20 ADD PUSH1 0x4 DUP3 ADD SLOAD DUP2 MSTORE PUSH1 0x20 ADD PUSH1 0x5 DUP3 ADD SLOAD DUP2 MSTORE PUSH1 0x20 ADD PUSH1 0x6 DUP3 ADD SLOAD DUP2 MSTORE PUSH1 0x20 ADD PUSH1 0x7 DUP3 ADD DUP1 SLOAD PUSH2 0xB23 SWAP1 PUSH2 0x1B9A JUMP JUMPDEST DUP1 PUSH1 0x1F ADD PUSH1 0x20 DUP1 SWAP2 DIV MUL PUSH1 0x20 ADD PUSH1 0x40 MLOAD SWAP1 DUP2 ADD PUSH1 0x40 MSTORE DUP1 SWAP3 SWAP2 SWAP1 DUP2 DUP2 MSTORE PUSH1 0x20 ADD DUP3 DUP1 SLOAD PUSH2 0xB4F SWAP1 PUSH2 0x1B9A JUMP JUMPDEST DUP1 ISZERO PUSH2 0xB9C JUMPI DUP1 PUSH1 0x1F LT PUSH2 0xB71 JUMPI PUSH2 0x100 DUP1 DUP4 SLOAD DIV MUL DUP4 MSTORE SWAP2 PUSH1 0x20 ADD SWAP2 PUSH2 0xB9C JUMP JUMPDEST DUP3 ADD SWAP2 SWAP1 PUSH1 0x0 MSTORE PUSH1 0x20 PUSH1 0x0 KECCAK256 SWAP1 JUMPDEST DUP2 SLOAD DUP2 MSTORE SWAP1 PUSH1 0x1 ADD SWAP1 PUSH1 0x20 ADD DUP1 DUP4 GT PUSH2 0xB7F JUMPI DUP3 SWAP1 SUB PUSH1 0x1F AND DUP3 ADD SWAP2 JUMPDEST POP POP POP POP POP DUP2 MSTORE PUSH1 0x20 ADD PUSH1 0x8 DUP3 ADD DUP1 SLOAD PUSH2 0xBB5 SWAP1 PUSH2 0x1B9A JUMP JUMPDEST DUP1 PUSH1 0x1F ADD PUSH1 0x20 DUP1 SWAP2 DIV MUL PUSH1 0x20 ADD PUSH1 0x40 MLOAD SWAP1 DUP2 ADD PUSH1 0x40 MSTORE DUP1 SWAP3 SWAP2 SWAP1 DUP2 DUP2 MSTORE PUSH1 0x20 ADD DUP3 DUP1 SLOAD PUSH2 0xBE1 SWAP1 PUSH2 0x1B9A JUMP JUMPDEST DUP1 ISZERO PUSH2 0xC2E JUMPI DUP1 PUSH1 0x1F LT PUSH2 0xC03 JUMPI PUSH2 0x100 DUP1 DUP4 SLOAD DIV MUL DUP4 MSTORE SWAP2 PUSH1 0x20 ADD SWAP2 PUSH2 0xC2E JUMP JUMPDEST DUP3 ADD SWAP2 SWAP1 PUSH1 0x0 MSTORE PUSH1 0x20 PUSH1 0x0 KECCAK256 SWAP1 JUMPDEST DUP2 SLOAD DUP2 MSTORE SWAP1 PUSH1 0x1 ADD SWAP1 PUSH1 0x20 ADD DUP1 DUP4 GT PUSH2 0xC11 JUMPI DUP3 SWAP1 SUB PUSH1 0x1F AND DUP3 ADD SWAP2 JUMPDEST POP POP POP POP POP DUP2 MSTORE PUSH1 0x20 ADD PUSH1 0x9 DUP3 ADD DUP1 SLOAD PUSH2 0xC47 SWAP1 PUSH2 0x1B9A JUMP JUMPDEST DUP1 PUSH1 0x1F ADD PUSH1 0x20 DUP1 SWAP2 DIV MUL PUSH1 0x20 ADD PUSH1 0x40 MLOAD SWAP1 DUP2 ADD PUSH1 0x40 MSTORE DUP1 SWAP3 SWAP2 SWAP1 DUP2 DUP2 MSTORE PUSH1 0x20 ADD DUP3 DUP1 SLOAD PUSH2 0xC73 SWAP1 PUSH2 0x1B9A JUMP JUMPDEST DUP1 ISZERO PUSH2 0xCC0 JUMPI DUP1 PUSH1 0x1F LT PUSH2 0xC95 JUMPI PUSH2 0x100 DUP1 DUP4 SLOAD DIV MUL DUP4 MSTORE SWAP2 PUSH1 0x20 ADD SWAP2 PUSH2 0xCC0 JUMP JUMPDEST DUP3 ADD SWAP2 SWAP1 PUSH1 0x0 MSTORE PUSH1 0x20 PUSH1 0x0 KECCAK256 SWAP1 JUMPDEST DUP2 SLOAD DUP2 MSTORE SWAP1 PUSH1 0x1 ADD SWAP1 PUSH1 0x20 ADD DUP1 DUP4 GT PUSH2 0xCA3 JUMPI DUP3 SWAP1 SUB PUSH1 0x1F AND DUP3 ADD SWAP2 JUMPDEST POP POP POP POP POP DUP2 MSTORE POP POP DUP2 MSTORE PUSH1 0x20 ADD SWAP1 PUSH1 0x1 ADD SWAP1 PUSH2 0x9D5 JUMP JUMPDEST POP POP POP POP SWAP1 POP SWAP1 JUMP JUMPDEST PUSH1 0x0 PUSH1 0x1 DUP5 DUP2 SLOAD DUP2 LT PUSH2 0xCF7 JUMPI PUSH2 0xCF6 PUSH2 0x1E49 JUMP JUMPDEST JUMPDEST SWAP1 PUSH1 0x0 MSTORE PUSH1 0x20 PUSH1 0x0 KECCAK256 SWAP1 PUSH1 0xA MUL ADD PUSH1 0x3 ADD SLOAD SUB PUSH2 0xD49 JUMPI PUSH1 0x40 MLOAD PUSH32 0x8C379A000000000000000000000000000000000000000000000000000000000 DUP2 MSTORE PUSH1 0x4 ADD PUSH2 0xD40 SWAP1 PUSH2 0x1EC4 JUMP JUMPDEST PUSH1 0x40 MLOAD DUP1 SWAP2 SUB SWAP1 REVERT JUMPDEST PUSH1 0x1 DUP4 DUP2 SLOAD DUP2 LT PUSH2 0xD5D JUMPI PUSH2 0xD5C PUSH2 0x1E49 JUMP JUMPDEST JUMPDEST SWAP1 PUSH1 0x0 MSTORE PUSH1 0x20 PUSH1 0x0 KECCAK256 SWAP1 PUSH1 0xA MUL ADD PUSH1 0x3 ADD SLOAD TIMESTAMP LT PUSH2 0xDB0 JUMPI PUSH1 0x40 MLOAD PUSH32 0x8C379A000000000000000000000000000000000000000000000000000000000 DUP2 MSTORE PUSH1 0x4 ADD PUSH2 0xDA7 SWAP1 PUSH2 0x1F30 JUMP JUMPDEST PUSH1 0x40 MLOAD DUP1 SWAP2 SUB SWAP1 REVERT JUMPDEST DUP2 PUSH1 0x2 DUP6 DUP2 SLOAD DUP2 LT PUSH2 0xDC5 JUMPI PUSH2 0xDC4 PUSH2 0x1E49 JUMP JUMPDEST JUMPDEST SWAP1 PUSH1 0x0 MSTORE PUSH1 0x20 PUSH1 0x0 KECCAK256 SWAP1 PUSH1 0x3 MUL ADD PUSH1 0x2 ADD SLOAD LT ISZERO PUSH2 0xE18 JUMPI PUSH1 0x40 MLOAD PUSH32 0x8C379A000000000000000000000000000000000000000000000000000000000 DUP2 MSTORE PUSH1 0x4 ADD PUSH2 0xE0F SWAP1 PUSH2 0x2213 JUMP JUMPDEST PUSH1 0x40 MLOAD DUP1 SWAP2 SUB SWAP1 REVERT JUMPDEST DUP2 PUSH1 0x2 DUP6 DUP2 SLOAD DUP2 LT PUSH2 0xE2D JUMPI PUSH2 0xE2C PUSH2 0x1E49 JUMP JUMPDEST JUMPDEST SWAP1 PUSH1 0x0 MSTORE PUSH1 0x20 PUSH1 0x0 KECCAK256 SWAP1 PUSH1 0x3 MUL ADD PUSH1 0x2 ADD PUSH1 0x0 DUP3 DUP3 SLOAD PUSH2 0xE4D SWAP2 SWAP1 PUSH2 0x214B JUMP JUMPDEST SWAP3 POP POP DUP2 SWAP1 SSTORE POP PUSH1 0x2 PUSH1 0x40 MLOAD DUP1 PUSH1 0x60 ADD PUSH1 0x40 MSTORE DUP1 DUP6 DUP2 MSTORE PUSH1 0x20 ADD DUP4 PUSH20 0xFFFFFFFFFFFFFFFFFFFFFFFFFFFFFFFFFFFFFFFF AND DUP2 MSTORE PUSH1 0x20 ADD DUP5 DUP2 MSTORE POP SWAP1 DUP1 PUSH1 0x1 DUP2 SLOAD ADD DUP1 DUP3 SSTORE DUP1 SWAP2 POP POP PUSH1 0x1 SWAP1 SUB SWAP1 PUSH1 0x0 MSTORE PUSH1 0x20 PUSH1 0x0 KECCAK256 SWAP1 PUSH1 0x3 MUL ADD PUSH1 0x0 SWAP1 SWAP2 SWAP1 SWAP2 SWAP1 SWAP2 POP PUSH1 0x0 DUP3 ADD MLOAD DUP2 PUSH1 0x0 ADD SSTORE PUSH1 0x20 DUP3 ADD MLOAD DUP2 PUSH1 0x1 ADD PUSH1 0x0 PUSH2 0x100 EXP DUP2 SLOAD DUP2 PUSH20 0xFFFFFFFFFFFFFFFFFFFFFFFFFFFFFFFFFFFFFFFF MUL NOT AND SWAP1 DUP4 PUSH20 0xFFFFFFFFFFFFFFFFFFFFFFFFFFFFFFFFFFFFFFFF AND MUL OR SWAP1 SSTORE POP PUSH1 0x40 DUP3 ADD MLOAD DUP2 PUSH1 0x2 ADD SSTORE POP POP POP POP POP POP JUMP JUMPDEST PUSH1 0x60 PUSH1 0x1 DUP1 SLOAD DUP1 PUSH1 0x20 MUL PUSH1 0x20 ADD PUSH1 0x40 MLOAD SWAP1 DUP2 ADD PUSH1 0x40 MSTORE DUP1 SWAP3 SWAP2 SWAP1 DUP2 DUP2 MSTORE PUSH1 0x20 ADD PUSH1 0x0 SWAP1 JUMPDEST DUP3 DUP3 LT ISZERO PUSH2 0x123A JUMPI DUP4 DUP3 SWAP1 PUSH1 0x0 MSTORE PUSH1 0x20 PUSH1 0x0 KECCAK256 SWAP1 PUSH1 0xA MUL ADD PUSH1 0x40 MLOAD DUP1 PUSH2 0x140 ADD PUSH1 0x40 MSTORE SWAP1 DUP2 PUSH1 0x0 DUP3 ADD SLOAD DUP2 MSTORE PUSH1 0x20 ADD PUSH1 0x1 DUP3 ADD PUSH1 0x0 SWAP1 SLOAD SWAP1 PUSH2 0x100 EXP SWAP1 DIV PUSH20 0xFFFFFFFFFFFFFFFFFFFFFFFFFFFFFFFFFFFFFFFF AND PUSH20 0xFFFFFFFFFFFFFFFFFFFFFFFFFFFFFFFFFFFFFFFF AND PUSH20 0xFFFFFFFFFFFFFFFFFFFFFFFFFFFFFFFFFFFFFFFF AND DUP2 MSTORE PUSH1 0x20 ADD PUSH1 0x2 DUP3 ADD DUP1 SLOAD PUSH2 0xFCB SWAP1 PUSH2 0x1B9A JUMP JUMPDEST DUP1 PUSH1 0x1F ADD PUSH1 0x20 DUP1 SWAP2 DIV MUL PUSH1 0x20 ADD PUSH1 0x40 MLOAD SWAP1 DUP2 ADD PUSH1 0x40 MSTORE DUP1 SWAP3 SWAP2 SWAP1 DUP2 DUP2 MSTORE PUSH1 0x20 ADD DUP3 DUP1 SLOAD PUSH2 0xFF7 SWAP1 PUSH2 0x1B9A JUMP JUMPDEST DUP1 ISZERO PUSH2 0x1044 JUMPI DUP1 PUSH1 0x1F LT PUSH2 0x1019 JUMPI PUSH2 0x100 DUP1 DUP4 SLOAD DIV MUL DUP4 MSTORE SWAP2 PUSH1 0x20 ADD SWAP2 PUSH2 0x1044 JUMP JUMPDEST DUP3 ADD SWAP2 SWAP1 PUSH1 0x0 MSTORE PUSH1 0x20 PUSH1 0x0 KECCAK256 SWAP1 JUMPDEST DUP2 SLOAD DUP2 MSTORE SWAP1 PUSH1 0x1 ADD SWAP1 PUSH1 0x20 ADD DUP1 DUP4 GT PUSH2 0x1027 JUMPI DUP3 SWAP1 SUB PUSH1 0x1F AND DUP3 ADD SWAP2 JUMPDEST POP POP POP POP POP DUP2 MSTORE PUSH1 0x20 ADD PUSH1 0x3 DUP3 ADD SLOAD DUP2 MSTORE PUSH1 0x20 ADD PUSH1 0x4 DUP3 ADD SLOAD DUP2 MSTORE PUSH1 0x20 ADD PUSH1 0x5 DUP3 ADD SLOAD DUP2 MSTORE PUSH1 0x20 ADD PUSH1 0x6 DUP3 ADD SLOAD DUP2 MSTORE PUSH1 0x20 ADD PUSH1 0x7 DUP3 ADD DUP1 SLOAD PUSH2 0x1085 SWAP1 PUSH2 0x1B9A JUMP JUMPDEST DUP1 PUSH1 0x1F ADD PUSH1 0x20 DUP1 SWAP2 DIV MUL PUSH1 0x20 ADD PUSH1 0x40 MLOAD SWAP1 DUP2 ADD PUSH1 0x40 MSTORE DUP1 SWAP3 SWAP2 SWAP1 DUP2 DUP2 MSTORE PUSH1 0x20 ADD DUP3 DUP1 SLOAD PUSH2 0x10B1 SWAP1 PUSH2 0x1B9A JUMP JUMPDEST DUP1 ISZERO PUSH2 0x10FE JUMPI DUP1 PUSH1 0x1F LT PUSH2 0x10D3 JUMPI PUSH2 0x100 DUP1 DUP4 SLOAD DIV MUL DUP4 MSTORE SWAP2 PUSH1 0x20 ADD SWAP2 PUSH2 0x10FE JUMP JUMPDEST DUP3 ADD SWAP2 SWAP1 PUSH1 0x0 MSTORE PUSH1 0x20 PUSH1 0x0 KECCAK256 SWAP1 JUMPDEST DUP2 SLOAD DUP2 MSTORE SWAP1 PUSH1 0x1 ADD SWAP1 PUSH1 0x20 ADD DUP1 DUP4 GT PUSH2 0x10E1 JUMPI DUP3 SWAP1 SUB PUSH1 0x1F AND DUP3 ADD SWAP2 JUMPDEST POP POP POP POP POP DUP2 MSTORE PUSH1 0x20 ADD PUSH1 0x8 DUP3 ADD DUP1 SLOAD PUSH2 0x1117 SWAP1 PUSH2 0x1B9A JUMP JUMPDEST DUP1 PUSH1 0x1F ADD PUSH1 0x20 DUP1 SWAP2 DIV MUL PUSH1 0x20 ADD PUSH1 0x40 MLOAD SWAP1 DUP2 ADD PUSH1 0x40 MSTORE DUP1 SWAP3 SWAP2 SWAP1 DUP2 DUP2 MSTORE PUSH1 0x20 ADD DUP3 DUP1 SLOAD PUSH2 0x1143 SWAP1 PUSH2 0x1B9A JUMP JUMPDEST DUP1 ISZERO PUSH2 0x1190 JUMPI DUP1 PUSH1 0x1F LT PUSH2 0x1165 JUMPI PUSH2 0x100 DUP1 DUP4 SLOAD DIV MUL DUP4 MSTORE SWAP2 PUSH1 0x20 ADD SWAP2 PUSH2 0x1190 JUMP JUMPDEST DUP3 ADD SWAP2 SWAP1 PUSH1 0x0 MSTORE PUSH1 0x20 PUSH1 0x0 KECCAK256 SWAP1 JUMPDEST DUP2 SLOAD DUP2 MSTORE SWAP1 PUSH1 0x1 ADD SWAP1 PUSH1 0x20 ADD DUP1 DUP4 GT PUSH2 0x1173 JUMPI DUP3 SWAP1 SUB PUSH1 0x1F AND DUP3 ADD SWAP2 JUMPDEST POP POP POP POP POP DUP2 MSTORE PUSH1 0x20 ADD PUSH1 0x9 DUP3 ADD DUP1 SLOAD PUSH2 0x11A9 SWAP1 PUSH2 0x1B9A JUMP JUMPDEST DUP1 PUSH1 0x1F ADD PUSH1 0x20 DUP1 SWAP2 DIV MUL PUSH1 0x20 ADD PUSH1 0x40 MLOAD SWAP1 DUP2 ADD PUSH1 0x40 MSTORE DUP1 SWAP3 SWAP2 SWAP1 DUP2 DUP2 MSTORE PUSH1 0x20 ADD DUP3 DUP1 SLOAD PUSH2 0x11D5 SWAP1 PUSH2 0x1B9A JUMP JUMPDEST DUP1 ISZERO PUSH2 0x1222 JUMPI DUP1 PUSH1 0x1F LT PUSH2 0x11F7 JUMPI PUSH2 0x100 DUP1 DUP4 SLOAD DIV MUL DUP4 MSTORE SWAP2 PUSH1 0x20 ADD SWAP2 PUSH2 0x1222 JUMP JUMPDEST DUP3 ADD SWAP2 SWAP1 PUSH1 0x0 MSTORE PUSH1 0x20 PUSH1 0x0 KECCAK256 SWAP1 JUMPDEST DUP2 SLOAD DUP2 MSTORE SWAP1 PUSH1 0x1 ADD SWAP1 PUSH1 0x20 ADD DUP1 DUP4 GT PUSH2 0x1205 JUMPI DUP3 SWAP1 SUB PUSH1 0x1F AND DUP3 ADD SWAP2 JUMPDEST POP POP POP POP POP DUP2 MSTORE POP POP DUP2 MSTORE PUSH1 0x20 ADD SWAP1 PUSH1 0x1 ADD SWAP1 PUSH2 0xF37 JUMP JUMPDEST POP POP POP POP SWAP1 POP SWAP1 JUMP JUMPDEST PUSH1 0x60 PUSH1 0x2 DUP1 SLOAD DUP1 PUSH1 0x20 MUL PUSH1 0x20 ADD PUSH1 0x40 MLOAD SWAP1 DUP2 ADD PUSH1 0x40 MSTORE DUP1 SWAP3 SWAP2 SWAP1 DUP2 DUP2 MSTORE PUSH1 0x20 ADD PUSH1 0x0 SWAP1 JUMPDEST DUP3 DUP3 LT ISZERO PUSH2 0x1303 JUMPI DUP4 DUP3 SWAP1 PUSH1 0x0 MSTORE PUSH1 0x20 PUSH1 0x0 KECCAK256 SWAP1 PUSH1 0x3 MUL ADD PUSH1 0x40 MLOAD DUP1 PUSH1 0x60 ADD PUSH1 0x40 MSTORE SWAP1 DUP2 PUSH1 0x0 DUP3 ADD SLOAD DUP2 MSTORE PUSH1 0x20 ADD PUSH1 0x1 DUP3 ADD PUSH1 0x0 SWAP1 SLOAD SWAP1 PUSH2 0x100 EXP SWAP1 DIV PUSH20 0xFFFFFFFFFFFFFFFFFFFFFFFFFFFFFFFFFFFFFFFF AND PUSH20 0xFFFFFFFFFFFFFFFFFFFFFFFFFFFFFFFFFFFFFFFF AND PUSH20 0xFFFFFFFFFFFFFFFFFFFFFFFFFFFFFFFFFFFFFFFF AND DUP2 MSTORE PUSH1 0x20 ADD PUSH1 0x2 DUP3 ADD SLOAD DUP2 MSTORE POP POP DUP2 MSTORE PUSH1 0x20 ADD SWAP1 PUSH1 0x1 ADD SWAP1 PUSH2 0x1267 JUMP JUMPDEST POP POP POP POP SWAP1 POP SWAP1 JUMP JUMPDEST PUSH1 0x0 PUSH1 0x40 MLOAD SWAP1 POP SWAP1 JUMP JUMPDEST PUSH1 0x0 DUP1 REVERT JUMPDEST PUSH1 0x0 DUP1 REVERT JUMPDEST PUSH1 0x0 DUP1 REVERT JUMPDEST PUSH1 0x0 DUP1 REVERT JUMPDEST PUSH1 0x0 PUSH1 0x1F NOT PUSH1 0x1F DUP4 ADD AND SWAP1 POP SWAP2 SWAP1 POP JUMP JUMPDEST PUSH32 0x4E487B7100000000000000000000000000000000000000000000000000000000 PUSH1 0x0 MSTORE PUSH1 0x41 PUSH1 0x4 MSTORE PUSH1 0x24 PUSH1 0x0 REVERT JUMPDEST PUSH2 0x1373 DUP3 PUSH2 0x132A JUMP JUMPDEST DUP2 ADD DUP2 DUP2 LT PUSH8 0xFFFFFFFFFFFFFFFF DUP3 GT OR ISZERO PUSH2 0x1392 JUMPI PUSH2 0x1391 PUSH2 0x133B JUMP JUMPDEST JUMPDEST DUP1 PUSH1 0x40 MSTORE POP POP POP JUMP JUMPDEST PUSH1 0x0 PUSH2 0x13A5 PUSH2 0x130C JUMP JUMPDEST SWAP1 POP PUSH2 0x13B1 DUP3 DUP3 PUSH2 0x136A JUMP JUMPDEST SWAP2 SWAP1 POP JUMP JUMPDEST PUSH1 0x0 PUSH8 0xFFFFFFFFFFFFFFFF DUP3 GT ISZERO PUSH2 0x13D1 JUMPI PUSH2 0x13D0 PUSH2 0x133B JUMP JUMPDEST JUMPDEST PUSH2 0x13DA DUP3 PUSH2 0x132A JUMP JUMPDEST SWAP1 POP PUSH1 0x20 DUP2 ADD SWAP1 POP SWAP2 SWAP1 POP JUMP JUMPDEST DUP3 DUP2 DUP4 CALLDATACOPY PUSH1 0x0 DUP4 DUP4 ADD MSTORE POP POP POP JUMP JUMPDEST PUSH1 0x0 PUSH2 0x1409 PUSH2 0x1404 DUP5 PUSH2 0x13B6 JUMP JUMPDEST PUSH2 0x139B JUMP JUMPDEST SWAP1 POP DUP3 DUP2 MSTORE PUSH1 0x20 DUP2 ADD DUP5 DUP5 DUP5 ADD GT ISZERO PUSH2 0x1425 JUMPI PUSH2 0x1424 PUSH2 0x1325 JUMP JUMPDEST JUMPDEST PUSH2 0x1430 DUP5 DUP3 DUP6 PUSH2 0x13E7 JUMP JUMPDEST POP SWAP4 SWAP3 POP POP POP JUMP JUMPDEST PUSH1 0x0 DUP3 PUSH1 0x1F DUP4 ADD SLT PUSH2 0x144D JUMPI PUSH2 0x144C PUSH2 0x1320 JUMP JUMPDEST JUMPDEST DUP2 CALLDATALOAD PUSH2 0x145D DUP5 DUP3 PUSH1 0x20 DUP7 ADD PUSH2 0x13F6 JUMP JUMPDEST SWAP2 POP POP SWAP3 SWAP2 POP POP JUMP JUMPDEST PUSH1 0x0 DUP2 SWAP1 POP SWAP2 SWAP1 POP JUMP JUMPDEST PUSH2 0x1479 DUP2 PUSH2 0x1466 JUMP JUMPDEST DUP2 EQ PUSH2 0x1484 JUMPI PUSH1 0x0 DUP1 REVERT JUMPDEST POP JUMP JUMPDEST PUSH1 0x0 DUP2 CALLDATALOAD SWAP1 POP PUSH2 0x1496 DUP2 PUSH2 0x1470 JUMP JUMPDEST SWAP3 SWAP2 POP POP JUMP JUMPDEST PUSH1 0x0 DUP1 PUSH1 0x0 DUP1 PUSH1 0x0 DUP1 PUSH1 0x0 PUSH1 0xE0 DUP9 DUP11 SUB SLT ISZERO PUSH2 0x14BB JUMPI PUSH2 0x14BA PUSH2 0x1316 JUMP JUMPDEST JUMPDEST PUSH1 0x0 DUP9 ADD CALLDATALOAD PUSH8 0xFFFFFFFFFFFFFFFF DUP2 GT ISZERO PUSH2 0x14D9 JUMPI PUSH2 0x14D8 PUSH2 0x131B JUMP JUMPDEST JUMPDEST PUSH2 0x14E5 DUP11 DUP3 DUP12 ADD PUSH2 0x1438 JUMP JUMPDEST SWAP8 POP POP PUSH1 0x20 DUP9 ADD CALLDATALOAD PUSH8 0xFFFFFFFFFFFFFFFF DUP2 GT ISZERO PUSH2 0x1506 JUMPI PUSH2 0x1505 PUSH2 0x131B JUMP JUMPDEST JUMPDEST PUSH2 0x1512 DUP11 DUP3 DUP12 ADD PUSH2 0x1438 JUMP JUMPDEST SWAP7 POP POP PUSH1 0x40 PUSH2 0x1523 DUP11 DUP3 DUP12 ADD PUSH2 0x1487 JUMP JUMPDEST SWAP6 POP POP PUSH1 0x60 PUSH2 0x1534 DUP11 DUP3 DUP12 ADD PUSH2 0x1487 JUMP JUMPDEST SWAP5 POP POP PUSH1 0x80 PUSH2 0x1545 DUP11 DUP3 DUP12 ADD PUSH2 0x1487 JUMP JUMPDEST SWAP4 POP POP PUSH1 0xA0 DUP9 ADD CALLDATALOAD PUSH8 0xFFFFFFFFFFFFFFFF DUP2 GT ISZERO PUSH2 0x1566 JUMPI PUSH2 0x1565 PUSH2 0x131B JUMP JUMPDEST JUMPDEST PUSH2 0x1572 DUP11 DUP3 DUP12 ADD PUSH2 0x1438 JUMP JUMPDEST SWAP3 POP POP PUSH1 0xC0 DUP9 ADD CALLDATALOAD PUSH8 0xFFFFFFFFFFFFFFFF DUP2 GT ISZERO PUSH2 0x1593 JUMPI PUSH2 0x1592 PUSH2 0x131B JUMP JUMPDEST JUMPDEST PUSH2 0x159F DUP11 DUP3 DUP12 ADD PUSH2 0x1438 JUMP JUMPDEST SWAP2 POP POP SWAP3 SWAP6 SWAP9 SWAP2 SWAP5 SWAP8 POP SWAP3 SWAP6 POP JUMP JUMPDEST PUSH1 0x0 DUP1 PUSH1 0x40 DUP4 DUP6 SUB SLT ISZERO PUSH2 0x15C5 JUMPI PUSH2 0x15C4 PUSH2 0x1316 JUMP JUMPDEST JUMPDEST PUSH1 0x0 PUSH2 0x15D3 DUP6 DUP3 DUP7 ADD PUSH2 0x1487 JUMP JUMPDEST SWAP3 POP POP PUSH1 0x20 PUSH2 0x15E4 DUP6 DUP3 DUP7 ADD PUSH2 0x1487 JUMP JUMPDEST SWAP2 POP POP SWAP3 POP SWAP3 SWAP1 POP JUMP JUMPDEST PUSH1 0x0 DUP2 MLOAD SWAP1 POP SWAP2 SWAP1 POP JUMP JUMPDEST PUSH1 0x0 DUP3 DUP3 MSTORE PUSH1 0x20 DUP3 ADD SWAP1 POP SWAP3 SWAP2 POP POP JUMP JUMPDEST PUSH1 0x0 DUP2 SWAP1 POP PUSH1 0x20 DUP3 ADD SWAP1 POP SWAP2 SWAP1 POP JUMP JUMPDEST PUSH2 0x1623 DUP2 PUSH2 0x1466 JUMP JUMPDEST DUP3 MSTORE POP POP JUMP JUMPDEST PUSH1 0x0 PUSH20 0xFFFFFFFFFFFFFFFFFFFFFFFFFFFFFFFFFFFFFFFF DUP3 AND SWAP1 POP SWAP2 SWAP1 POP JUMP JUMPDEST PUSH1 0x0 PUSH2 0x1654 DUP3 PUSH2 0x1629 JUMP JUMPDEST SWAP1 POP SWAP2 SWAP1 POP JUMP JUMPDEST PUSH2 0x1664 DUP2 PUSH2 0x1649 JUMP JUMPDEST DUP3 MSTORE POP POP JUMP JUMPDEST PUSH1 0x0 DUP2 MLOAD SWAP1 POP SWAP2 SWAP1 POP JUMP JUMPDEST PUSH1 0x0 DUP3 DUP3 MSTORE PUSH1 0x20 DUP3 ADD SWAP1 POP SWAP3 SWAP2 POP POP JUMP JUMPDEST PUSH1 0x0 JUMPDEST DUP4 DUP2 LT ISZERO PUSH2 0x16A4 JUMPI DUP1 DUP3 ADD MLOAD DUP2 DUP5 ADD MSTORE PUSH1 0x20 DUP2 ADD SWAP1 POP PUSH2 0x1689 JUMP JUMPDEST PUSH1 0x0 DUP5 DUP5 ADD MSTORE POP POP POP POP JUMP JUMPDEST PUSH1 0x0 PUSH2 0x16BB DUP3 PUSH2 0x166A JUMP JUMPDEST PUSH2 0x16C5 DUP2 DUP6 PUSH2 0x1675 JUMP JUMPDEST SWAP4 POP PUSH2 0x16D5 DUP2 DUP6 PUSH1 0x20 DUP7 ADD PUSH2 0x1686 JUMP JUMPDEST PUSH2 0x16DE DUP2 PUSH2 0x132A JUMP JUMPDEST DUP5 ADD SWAP2 POP POP SWAP3 SWAP2 POP POP JUMP JUMPDEST PUSH1 0x0 PUSH2 0x140 DUP4 ADD PUSH1 0x0 DUP4 ADD MLOAD PUSH2 0x1702 PUSH1 0x0 DUP7 ADD DUP3 PUSH2 0x161A JUMP JUMPDEST POP PUSH1 0x20 DUP4 ADD MLOAD PUSH2 0x1715 PUSH1 0x20 DUP7 ADD DUP3 PUSH2 0x165B JUMP JUMPDEST POP PUSH1 0x40 DUP4 ADD MLOAD DUP5 DUP3 SUB PUSH1 0x40 DUP7 ADD MSTORE PUSH2 0x172D DUP3 DUP3 PUSH2 0x16B0 JUMP JUMPDEST SWAP2 POP POP PUSH1 0x60 DUP4 ADD MLOAD PUSH2 0x1742 PUSH1 0x60 DUP7 ADD DUP3 PUSH2 0x161A JUMP JUMPDEST POP PUSH1 0x80 DUP4 ADD MLOAD PUSH2 0x1755 PUSH1 0x80 DUP7 ADD DUP3 PUSH2 0x161A JUMP JUMPDEST POP PUSH1 0xA0 DUP4 ADD MLOAD PUSH2 0x1768 PUSH1 0xA0 DUP7 ADD DUP3 PUSH2 0x161A JUMP JUMPDEST POP PUSH1 0xC0 DUP4 ADD MLOAD PUSH2 0x177B PUSH1 0xC0 DUP7 ADD DUP3 PUSH2 0x161A JUMP JUMPDEST POP PUSH1 0xE0 DUP4 ADD MLOAD DUP5 DUP3 SUB PUSH1 0xE0 DUP7 ADD MSTORE PUSH2 0x1793 DUP3 DUP3 PUSH2 0x16B0 JUMP JUMPDEST SWAP2 POP POP PUSH2 0x100 DUP4 ADD MLOAD DUP5 DUP3 SUB PUSH2 0x100 DUP7 ADD MSTORE PUSH2 0x17AF DUP3 DUP3 PUSH2 0x16B0 JUMP JUMPDEST SWAP2 POP POP PUSH2 0x120 DUP4 ADD MLOAD DUP5 DUP3 SUB PUSH2 0x120 DUP7 ADD MSTORE PUSH2 0x17CB DUP3 DUP3 PUSH2 0x16B0 JUMP JUMPDEST SWAP2 POP POP DUP1 SWAP2 POP POP SWAP3 SWAP2 POP POP JUMP JUMPDEST PUSH1 0x0 PUSH2 0x17E4 DUP4 DUP4 PUSH2 0x16E9 JUMP JUMPDEST SWAP1 POP SWAP3 SWAP2 POP POP JUMP JUMPDEST PUSH1 0x0 PUSH1 0x20 DUP3 ADD SWAP1 POP SWAP2 SWAP1 POP JUMP JUMPDEST PUSH1 0x0 PUSH2 0x1804 DUP3 PUSH2 0x15EE JUMP JUMPDEST PUSH2 0x180E DUP2 DUP6 PUSH2 0x15F9 JUMP JUMPDEST SWAP4 POP DUP4 PUSH1 0x20 DUP3 MUL DUP6 ADD PUSH2 0x1820 DUP6 PUSH2 0x160A JUMP JUMPDEST DUP1 PUSH1 0x0 JUMPDEST DUP6 DUP2 LT ISZERO PUSH2 0x185C JUMPI DUP5 DUP5 SUB DUP10 MSTORE DUP2 MLOAD PUSH2 0x183D DUP6 DUP3 PUSH2 0x17D8 JUMP JUMPDEST SWAP5 POP PUSH2 0x1848 DUP4 PUSH2 0x17EC JUMP JUMPDEST SWAP3 POP PUSH1 0x20 DUP11 ADD SWAP10 POP POP PUSH1 0x1 DUP2 ADD SWAP1 POP PUSH2 0x1824 JUMP JUMPDEST POP DUP3 SWAP8 POP DUP8 SWAP6 POP POP POP POP POP POP SWAP3 SWAP2 POP POP JUMP JUMPDEST PUSH1 0x0 PUSH1 0x20 DUP3 ADD SWAP1 POP DUP2 DUP2 SUB PUSH1 0x0 DUP4 ADD MSTORE PUSH2 0x1888 DUP2 DUP5 PUSH2 0x17F9 JUMP JUMPDEST SWAP1 POP SWAP3 SWAP2 POP POP JUMP JUMPDEST PUSH2 0x1899 DUP2 PUSH2 0x1649 JUMP JUMPDEST DUP2 EQ PUSH2 0x18A4 JUMPI PUSH1 0x0 DUP1 REVERT JUMPDEST POP JUMP JUMPDEST PUSH1 0x0 DUP2 CALLDATALOAD SWAP1 POP PUSH2 0x18B6 DUP2 PUSH2 0x1890 JUMP JUMPDEST SWAP3 SWAP2 POP POP JUMP JUMPDEST PUSH1 0x0 DUP1 PUSH1 0x0 DUP1 PUSH1 0x80 DUP6 DUP8 SUB SLT ISZERO PUSH2 0x18D6 JUMPI PUSH2 0x18D5 PUSH2 0x1316 JUMP JUMPDEST JUMPDEST PUSH1 0x0 PUSH2 0x18E4 DUP8 DUP3 DUP9 ADD PUSH2 0x1487 JUMP JUMPDEST SWAP5 POP POP PUSH1 0x20 PUSH2 0x18F5 DUP8 DUP3 DUP9 ADD PUSH2 0x1487 JUMP JUMPDEST SWAP4 POP POP PUSH1 0x40 PUSH2 0x1906 DUP8 DUP3 DUP9 ADD PUSH2 0x1487 JUMP JUMPDEST SWAP3 POP POP PUSH1 0x60 PUSH2 0x1917 DUP8 DUP3 DUP9 ADD PUSH2 0x18A7 JUMP JUMPDEST SWAP2 POP POP SWAP3 SWAP6 SWAP2 SWAP5 POP SWAP3 POP JUMP JUMPDEST PUSH1 0x0 DUP2 MLOAD SWAP1 POP SWAP2 SWAP1 POP JUMP JUMPDEST PUSH1 0x0 DUP3 DUP3 MSTORE PUSH1 0x20 DUP3 ADD SWAP1 POP SWAP3 SWAP2 POP POP JUMP JUMPDEST PUSH1 0x0 DUP2 SWAP1 POP PUSH1 0x20 DUP3 ADD SWAP1 POP SWAP2 SWAP1 POP JUMP JUMPDEST PUSH1 0x60 DUP3 ADD PUSH1 0x0 DUP3 ADD MLOAD PUSH2 0x1965 PUSH1 0x0 DUP6 ADD DUP3 PUSH2 0x161A JUMP JUMPDEST POP PUSH1 0x20 DUP3 ADD MLOAD PUSH2 0x1978 PUSH1 0x20 DUP6 ADD DUP3 PUSH2 0x165B JUMP JUMPDEST POP PUSH1 0x40 DUP3 ADD MLOAD PUSH2 0x198B PUSH1 0x40 DUP6 ADD DUP3 PUSH2 0x161A JUMP JUMPDEST POP POP POP POP JUMP JUMPDEST PUSH1 0x0 PUSH2 0x199D DUP4 DUP4 PUSH2 0x194F JUMP JUMPDEST PUSH1 0x60 DUP4 ADD SWAP1 POP SWAP3 SWAP2 POP POP JUMP JUMPDEST PUSH1 0x0 PUSH1 0x20 DUP3 ADD SWAP1 POP SWAP2 SWAP1 POP JUMP JUMPDEST PUSH1 0x0 PUSH2 0x19C1 DUP3 PUSH2 0x1923 JUMP JUMPDEST PUSH2 0x19CB DUP2 DUP6 PUSH2 0x192E JUMP JUMPDEST SWAP4 POP PUSH2 0x19D6 DUP4 PUSH2 0x193F JUMP JUMPDEST DUP1 PUSH1 0x0 JUMPDEST DUP4 DUP2 LT ISZERO PUSH2 0x1A07 JUMPI DUP2 MLOAD PUSH2 0x19EE DUP9 DUP3 PUSH2 0x1991 JUMP JUMPDEST SWAP8 POP PUSH2 0x19F9 DUP4 PUSH2 0x19A9 JUMP JUMPDEST SWAP3 POP POP PUSH1 0x1 DUP2 ADD SWAP1 POP PUSH2 0x19DA JUMP JUMPDEST POP DUP6 SWAP4 POP POP POP POP SWAP3 SWAP2 POP POP JUMP JUMPDEST PUSH1 0x0 PUSH1 0x20 DUP3 ADD SWAP1 POP DUP2 DUP2 SUB PUSH1 0x0 DUP4 ADD MSTORE PUSH2 0x1A2E DUP2 DUP5 PUSH2 0x19B6 JUMP JUMPDEST SWAP1 POP SWAP3 SWAP2 POP POP JUMP JUMPDEST PUSH1 0x0 DUP3 DUP3 MSTORE PUSH1 0x20 DUP3 ADD SWAP1 POP SWAP3 SWAP2 POP POP JUMP JUMPDEST PUSH32 0x596F752063616E206F7267616E697A65206576656E7420666F72206675747572 PUSH1 0x0 DUP3 ADD MSTORE PUSH32 0x6520646174650000000000000000000000000000000000000000000000000000 PUSH1 0x20 DUP3 ADD MSTORE POP JUMP JUMPDEST PUSH1 0x0 PUSH2 0x1AA3 PUSH1 0x26 DUP4 PUSH2 0x1A36 JUMP JUMPDEST SWAP2 POP PUSH2 0x1AAE DUP3 PUSH2 0x1A47 JUMP JUMPDEST PUSH1 0x40 DUP3 ADD SWAP1 POP SWAP2 SWAP1 POP JUMP JUMPDEST PUSH1 0x0 PUSH1 0x20 DUP3 ADD SWAP1 POP DUP2 DUP2 SUB PUSH1 0x0 DUP4 ADD MSTORE PUSH2 0x1AD2 DUP2 PUSH2 0x1A96 JUMP JUMPDEST SWAP1 POP SWAP2 SWAP1 POP JUMP JUMPDEST PUSH32 0x596F752063616E206F7267616E697A65206576656E74206F6E6C792069662079 PUSH1 0x0 DUP3 ADD MSTORE PUSH32 0x6F7520637265617465206D6F7265207468656E2030207469636B657473000000 PUSH1 0x20 DUP3 ADD MSTORE POP JUMP JUMPDEST PUSH1 0x0 PUSH2 0x1B35 PUSH1 0x3D DUP4 PUSH2 0x1A36 JUMP JUMPDEST SWAP2 POP PUSH2 0x1B40 DUP3 PUSH2 0x1AD9 JUMP JUMPDEST PUSH1 0x40 DUP3 ADD SWAP1 POP SWAP2 SWAP1 POP JUMP JUMPDEST PUSH1 0x0 PUSH1 0x20 DUP3 ADD SWAP1 POP DUP2 DUP2 SUB PUSH1 0x0 DUP4 ADD MSTORE PUSH2 0x1B64 DUP2 PUSH2 0x1B28 JUMP JUMPDEST SWAP1 POP SWAP2 SWAP1 POP JUMP JUMPDEST PUSH32 0x4E487B7100000000000000000000000000000000000000000000000000000000 PUSH1 0x0 MSTORE PUSH1 0x22 PUSH1 0x4 MSTORE PUSH1 0x24 PUSH1 0x0 REVERT JUMPDEST PUSH1 0x0 PUSH1 0x2 DUP3 DIV SWAP1 POP PUSH1 0x1 DUP3 AND DUP1 PUSH2 0x1BB2 JUMPI PUSH1 0x7F DUP3 AND SWAP2 POP JUMPDEST PUSH1 0x20 DUP3 LT DUP2 SUB PUSH2 0x1BC5 JUMPI PUSH2 0x1BC4 PUSH2 0x1B6B JUMP JUMPDEST JUMPDEST POP SWAP2 SWAP1 POP JUMP JUMPDEST PUSH1 0x0 DUP2 SWAP1 POP DUP2 PUSH1 0x0 MSTORE PUSH1 0x20 PUSH1 0x0 KECCAK256 SWAP1 POP SWAP2 SWAP1 POP JUMP JUMPDEST PUSH1 0x0 PUSH1 0x20 PUSH1 0x1F DUP4 ADD DIV SWAP1 POP SWAP2 SWAP1 POP JUMP JUMPDEST PUSH1 0x0 DUP3 DUP3 SHL SWAP1 POP SWAP3 SWAP2 POP POP JUMP JUMPDEST PUSH1 0x0 PUSH1 0x8 DUP4 MUL PUSH2 0x1C2D PUSH32 0xFFFFFFFFFFFFFFFFFFFFFFFFFFFFFFFFFFFFFFFFFFFFFFFFFFFFFFFFFFFFFFFF DUP3 PUSH2 0x1BF0 JUMP JUMPDEST PUSH2 0x1C37 DUP7 DUP4 PUSH2 0x1BF0 JUMP JUMPDEST SWAP6 POP DUP1 NOT DUP5 AND SWAP4 POP DUP1 DUP7 AND DUP5 OR SWAP3 POP POP POP SWAP4 SWAP3 POP POP POP JUMP JUMPDEST PUSH1 0x0 DUP2 SWAP1 POP SWAP2 SWAP1 POP JUMP JUMPDEST PUSH1 0x0 PUSH2 0x1C74 PUSH2 0x1C6F PUSH2 0x1C6A DUP5 PUSH2 0x1466 JUMP JUMPDEST PUSH2 0x1C4F JUMP JUMPDEST PUSH2 0x1466 JUMP JUMPDEST SWAP1 POP SWAP2 SWAP1 POP JUMP JUMPDEST PUSH1 0x0 DUP2 SWAP1 POP SWAP2 SWAP1 POP JUMP JUMPDEST PUSH2 0x1C8E DUP4 PUSH2 0x1C59 JUMP JUMPDEST PUSH2 0x1CA2 PUSH2 0x1C9A DUP3 PUSH2 0x1C7B JUMP JUMPDEST DUP5 DUP5 SLOAD PUSH2 0x1BFD JUMP JUMPDEST DUP3 SSTORE POP POP POP POP JUMP JUMPDEST PUSH1 0x0 SWAP1 JUMP JUMPDEST PUSH2 0x1CB7 PUSH2 0x1CAA JUMP JUMPDEST PUSH2 0x1CC2 DUP2 DUP5 DUP5 PUSH2 0x1C85 JUMP JUMPDEST POP POP POP JUMP JUMPDEST JUMPDEST DUP2 DUP2 LT ISZERO PUSH2 0x1CE6 JUMPI PUSH2 0x1CDB PUSH1 0x0 DUP3 PUSH2 0x1CAF JUMP JUMPDEST PUSH1 0x1 DUP2 ADD SWAP1 POP PUSH2 0x1CC8 JUMP JUMPDEST POP POP JUMP JUMPDEST PUSH1 0x1F DUP3 GT ISZERO PUSH2 0x1D2B JUMPI PUSH2 0x1CFC DUP2 PUSH2 0x1BCB JUMP JUMPDEST PUSH2 0x1D05 DUP5 PUSH2 0x1BE0 JUMP JUMPDEST DUP2 ADD PUSH1 0x20 DUP6 LT ISZERO PUSH2 0x1D14 JUMPI DUP2 SWAP1 POP JUMPDEST PUSH2 0x1D28 PUSH2 0x1D20 DUP6 PUSH2 0x1BE0 JUMP JUMPDEST DUP4 ADD DUP3 PUSH2 0x1CC7 JUMP JUMPDEST POP POP JUMPDEST POP POP POP JUMP JUMPDEST PUSH1 0x0 DUP3 DUP3 SHR SWAP1 POP SWAP3 SWAP2 POP POP JUMP JUMPDEST PUSH1 0x0 PUSH2 0x1D4E PUSH1 0x0 NOT DUP5 PUSH1 0x8 MUL PUSH2 0x1D30 JUMP JUMPDEST NOT DUP1 DUP4 AND SWAP2 POP POP SWAP3 SWAP2 POP POP JUMP JUMPDEST PUSH1 0x0 PUSH2 0x1D67 DUP4 DUP4 PUSH2 0x1D3D JUMP JUMPDEST SWAP2 POP DUP3 PUSH1 0x2 MUL DUP3 OR SWAP1 POP SWAP3 SWAP2 POP POP JUMP JUMPDEST PUSH2 0x1D80 DUP3 PUSH2 0x166A JUMP JUMPDEST PUSH8 0xFFFFFFFFFFFFFFFF DUP2 GT ISZERO PUSH2 0x1D99 JUMPI PUSH2 0x1D98 PUSH2 0x133B JUMP JUMPDEST JUMPDEST PUSH2 0x1DA3 DUP3 SLOAD PUSH2 0x1B9A JUMP JUMPDEST PUSH2 0x1DAE DUP3 DUP3 DUP6 PUSH2 0x1CEA JUMP JUMPDEST PUSH1 0x0 PUSH1 0x20 SWAP1 POP PUSH1 0x1F DUP4 GT PUSH1 0x1 DUP2 EQ PUSH2 0x1DE1 JUMPI PUSH1 0x0 DUP5 ISZERO PUSH2 0x1DCF JUMPI DUP3 DUP8 ADD MLOAD SWAP1 POP JUMPDEST PUSH2 0x1DD9 DUP6 DUP3 PUSH2 0x1D5B JUMP JUMPDEST DUP7 SSTORE POP PUSH2 0x1E41 JUMP JUMPDEST PUSH1 0x1F NOT DUP5 AND PUSH2 0x1DEF DUP7 PUSH2 0x1BCB JUMP JUMPDEST PUSH1 0x0 JUMPDEST DUP3 DUP2 LT ISZERO PUSH2 0x1E17 JUMPI DUP5 DUP10 ADD MLOAD DUP3 SSTORE PUSH1 0x1 DUP3 ADD SWAP2 POP PUSH1 0x20 DUP6 ADD SWAP5 POP PUSH1 0x20 DUP2 ADD SWAP1 POP PUSH2 0x1DF2 JUMP JUMPDEST DUP7 DUP4 LT ISZERO PUSH2 0x1E34 JUMPI DUP5 DUP10 ADD MLOAD PUSH2 0x1E30 PUSH1 0x1F DUP10 AND DUP3 PUSH2 0x1D3D JUMP JUMPDEST DUP4 SSTORE POP JUMPDEST PUSH1 0x1 PUSH1 0x2 DUP9 MUL ADD DUP9 SSTORE POP POP POP JUMPDEST POP POP POP POP POP POP JUMP JUMPDEST PUSH32 0x4E487B7100000000000000000000000000000000000000000000000000000000 PUSH1 0x0 MSTORE PUSH1 0x32 PUSH1 0x4 MSTORE PUSH1 0x24 PUSH1 0x0 REVERT JUMPDEST PUSH32 0x4576656E7420646F6573206E6F74206578697374000000000000000000000000 PUSH1 0x0 DUP3 ADD MSTORE POP JUMP JUMPDEST PUSH1 0x0 PUSH2 0x1EAE PUSH1 0x14 DUP4 PUSH2 0x1A36 JUMP JUMPDEST SWAP2 POP PUSH2 0x1EB9 DUP3 PUSH2 0x1E78 JUMP JUMPDEST PUSH1 0x20 DUP3 ADD SWAP1 POP SWAP2 SWAP1 POP JUMP JUMPDEST PUSH1 0x0 PUSH1 0x20 DUP3 ADD SWAP1 POP DUP2 DUP2 SUB PUSH1 0x0 DUP4 ADD MSTORE PUSH2 0x1EDD DUP2 PUSH2 0x1EA1 JUMP JUMPDEST SWAP1 POP SWAP2 SWAP1 POP JUMP JUMPDEST PUSH32 0x4576656E742068617320616C7265616479206F63637572650000000000000000 PUSH1 0x0 DUP3 ADD MSTORE POP JUMP JUMPDEST PUSH1 0x0 PUSH2 0x1F1A PUSH1 0x18 DUP4 PUSH2 0x1A36 JUMP JUMPDEST SWAP2 POP PUSH2 0x1F25 DUP3 PUSH2 0x1EE4 JUMP JUMPDEST PUSH1 0x20 DUP3 ADD SWAP1 POP SWAP2 SWAP1 POP JUMP JUMPDEST PUSH1 0x0 PUSH1 0x20 DUP3 ADD SWAP1 POP DUP2 DUP2 SUB PUSH1 0x0 DUP4 ADD MSTORE PUSH2 0x1F49 DUP2 PUSH2 0x1F0D JUMP JUMPDEST SWAP1 POP SWAP2 SWAP1 POP JUMP JUMPDEST PUSH32 0x4E487B7100000000000000000000000000000000000000000000000000000000 PUSH1 0x0 MSTORE PUSH1 0x11 PUSH1 0x4 MSTORE PUSH1 0x24 PUSH1 0x0 REVERT JUMPDEST PUSH1 0x0 PUSH2 0x1F8A DUP3 PUSH2 0x1466 JUMP JUMPDEST SWAP2 POP PUSH2 0x1F95 DUP4 PUSH2 0x1466 JUMP JUMPDEST SWAP3 POP DUP3 DUP3 MUL PUSH2 0x1FA3 DUP2 PUSH2 0x1466 JUMP JUMPDEST SWAP2 POP DUP3 DUP3 DIV DUP5 EQ DUP4 ISZERO OR PUSH2 0x1FBA JUMPI PUSH2 0x1FB9 PUSH2 0x1F50 JUMP JUMPDEST JUMPDEST POP SWAP3 SWAP2 POP POP JUMP JUMPDEST PUSH32 0x4574686572206973206E6F7420656E6F75676800000000000000000000000000 PUSH1 0x0 DUP3 ADD MSTORE POP JUMP JUMPDEST PUSH1 0x0 PUSH2 0x1FF7 PUSH1 0x13 DUP4 PUSH2 0x1A36 JUMP JUMPDEST SWAP2 POP PUSH2 0x2002 DUP3 PUSH2 0x1FC1 JUMP JUMPDEST PUSH1 0x20 DUP3 ADD SWAP1 POP SWAP2 SWAP1 POP JUMP JUMPDEST PUSH1 0x0 PUSH1 0x20 DUP3 ADD SWAP1 POP DUP2 DUP2 SUB PUSH1 0x0 DUP4 ADD MSTORE PUSH2 0x2026 DUP2 PUSH2 0x1FEA JUMP JUMPDEST SWAP1 POP SWAP2 SWAP1 POP JUMP JUMPDEST PUSH32 0x6E6F7420656E6F756768207469636B6574730000000000000000000000000000 PUSH1 0x0 DUP3 ADD MSTORE POP JUMP JUMPDEST PUSH1 0x0 PUSH2 0x2063 PUSH1 0x12 DUP4 PUSH2 0x1A36 JUMP JUMPDEST SWAP2 POP PUSH2 0x206E DUP3 PUSH2 0x202D JUMP JUMPDEST PUSH1 0x20 DUP3 ADD SWAP1 POP SWAP2 SWAP1 POP JUMP JUMPDEST PUSH1 0x0 PUSH1 0x20 DUP3 ADD SWAP1 POP DUP2 DUP2 SUB PUSH1 0x0 DUP4 ADD MSTORE PUSH2 0x2092 DUP2 PUSH2 0x2056 JUMP JUMPDEST SWAP1 POP SWAP2 SWAP1 POP JUMP JUMPDEST PUSH1 0x0 DUP2 SWAP1 POP SWAP3 SWAP2 POP POP JUMP JUMPDEST POP JUMP JUMPDEST PUSH1 0x0 PUSH2 0x20B4 PUSH1 0x0 DUP4 PUSH2 0x2099 JUMP JUMPDEST SWAP2 POP PUSH2 0x20BF DUP3 PUSH2 0x20A4 JUMP JUMPDEST PUSH1 0x0 DUP3 ADD SWAP1 POP SWAP2 SWAP1 POP JUMP JUMPDEST PUSH1 0x0 PUSH2 0x20D5 DUP3 PUSH2 0x20A7 JUMP JUMPDEST SWAP2 POP DUP2 SWAP1 POP SWAP2 SWAP1 POP JUMP JUMPDEST PUSH32 0x4661696C656420746F2073656E64204574686572000000000000000000000000 PUSH1 0x0 DUP3 ADD MSTORE POP JUMP JUMPDEST PUSH1 0x0 PUSH2 0x2115 PUSH1 0x14 DUP4 PUSH2 0x1A36 JUMP JUMPDEST SWAP2 POP PUSH2 0x2120 DUP3 PUSH2 0x20DF JUMP JUMPDEST PUSH1 0x20 DUP3 ADD SWAP1 POP SWAP2 SWAP1 POP JUMP JUMPDEST PUSH1 0x0 PUSH1 0x20 DUP3 ADD SWAP1 POP DUP2 DUP2 SUB PUSH1 0x0 DUP4 ADD MSTORE PUSH2 0x2144 DUP2 PUSH2 0x2108 JUMP JUMPDEST SWAP1 POP SWAP2 SWAP1 POP JUMP JUMPDEST PUSH1 0x0 PUSH2 0x2156 DUP3 PUSH2 0x1466 JUMP JUMPDEST SWAP2 POP PUSH2 0x2161 DUP4 PUSH2 0x1466 JUMP JUMPDEST SWAP3 POP DUP3 DUP3 SUB SWAP1 POP DUP2 DUP2 GT ISZERO PUSH2 0x2179 JUMPI PUSH2 0x2178 PUSH2 0x1F50 JUMP JUMPDEST JUMPDEST SWAP3 SWAP2 POP POP JUMP JUMPDEST PUSH1 0x0 PUSH2 0x218A DUP3 PUSH2 0x1466 JUMP JUMPDEST SWAP2 POP PUSH32 0xFFFFFFFFFFFFFFFFFFFFFFFFFFFFFFFFFFFFFFFFFFFFFFFFFFFFFFFFFFFFFFFF DUP3 SUB PUSH2 0x21BC JUMPI PUSH2 0x21BB PUSH2 0x1F50 JUMP JUMPDEST JUMPDEST PUSH1 0x1 DUP3 ADD SWAP1 POP SWAP2 SWAP1 POP JUMP JUMPDEST PUSH32 0x596F7520646F206E6F74206861766520656E6F756768207469636B6574730000 PUSH1 0x0 DUP3 ADD MSTORE POP JUMP JUMPDEST PUSH1 0x0 PUSH2 0x21FD PUSH1 0x1E DUP4 PUSH2 0x1A36 JUMP JUMPDEST SWAP2 POP PUSH2 0x2208 DUP3 PUSH2 0x21C7 JUMP JUMPDEST PUSH1 0x20 DUP3 ADD SWAP1 POP SWAP2 SWAP1 POP JUMP JUMPDEST PUSH1 0x0 PUSH1 0x20 DUP3 ADD SWAP1 POP DUP2 DUP2 SUB PUSH1 0x0 DUP4 ADD MSTORE PUSH2 0x222C DUP2 PUSH2 0x21F0 JUMP JUMPDEST SWAP1 POP SWAP2 SWAP1 POP JUMP INVALID LOG2 PUSH5 0x6970667358 0x22 SLT KECCAK256 PUSH1 0x1D PUSH25 0x6B1DC223533713C0F5BCDDDA48C343AAC0BA14E699F31D1BC6 AND SUB 0xAA 0x5E PUSH5 0x736F6C6343 STOP ADDMOD SLT STOP CALLER "},"methodIdentifiers":{"buyTicket(uint256,uint256)":"298ec208","createEvent(string,string,uint256,uint256,uint256,string,string)":"04b8e0e0","getAllEvents()":"c27a500d","getMyEvents()":"3548124b","getMyTickets()":"e1d10d85","transferTickets(uint256,uint256,uint256,address)":"85029b48"}}}}}