{
  "_format": "hh-sol-artifact-1",
  "contractName": "EventContract",
  "sourceName": "contracts/EventContract.sol",
  "abi": [
    {
      "inputs": [
        {
          "internalType": "uint256",
          "name": "id",
          "type": "uint256"
        },
        {
          "internalType": "uint256",
          "name": "quantity",
          "type": "uint256"
        }
      ],
      "name": "buyTicket",
      "outputs": [],
      "stateMutability": "payable",
      "type": "function"
    },
    {
      "inputs": [
        {
          "internalType": "string",
          "name": "name",
          "type": "string"
        },
        {
          "internalType": "string",
          "name": "description",
          "type": "string"
        },
        {
          "internalType": "uint256",
          "name": "date",
          "type": "uint256"
        },
        {
          "internalType": "uint256",
          "name": "price",
          "type": "uint256"
        },
        {
          "internalType": "uint256",
          "name": "ticketCount",
          "type": "uint256"
        },
        {
          "internalType": "string",
          "name": "location",
          "type": "string"
        },
        {
          "internalType": "string",
          "name": "imageurl",
          "type": "string"
        }
      ],
      "name": "createEvent",
      "outputs": [],
      "stateMutability": "nonpayable",
      "type": "function"
    },
    {
      "inputs": [],
      "name": "getAllEvents",
      "outputs": [
        {
          "components": [
            {
              "internalType": "uint256",
              "name": "id",
              "type": "uint256"
            },
            {
              "internalType": "address",
              "name": "organizer",
              "type": "address"
            },
            {
              "internalType": "string",
              "name": "name",
              "type": "string"
            },
            {
              "internalType": "uint256",
              "name": "date",
              "type": "uint256"
            },
            {
              "internalType": "uint256",
              "name": "price",
              "type": "uint256"
            },
            {
              "internalType": "uint256",
              "name": "ticketCount",
              "type": "uint256"
            },
            {
              "internalType": "uint256",
              "name": "ticketRemain",
              "type": "uint256"
            },
            {
              "internalType": "string",
              "name": "location",
              "type": "string"
            },
            {
              "internalType": "string",
              "name": "description",
              "type": "string"
            },
            {
              "internalType": "string",
              "name": "imagepath",
              "type": "string"
            }
          ],
          "internalType": "struct EventContract.Event[]",
          "name": "",
          "type": "tuple[]"
        }
      ],
      "stateMutability": "view",
      "type": "function"
    },
    {
      "inputs": [],
      "name": "getMyEvents",
      "outputs": [
        {
          "components": [
            {
              "internalType": "uint256",
              "name": "id",
              "type": "uint256"
            },
            {
              "internalType": "address",
              "name": "organizer",
              "type": "address"
            },
            {
              "internalType": "string",
              "name": "name",
              "type": "string"
            },
            {
              "internalType": "uint256",
              "name": "date",
              "type": "uint256"
            },
            {
              "internalType": "uint256",
              "name": "price",
              "type": "uint256"
            },
            {
              "internalType": "uint256",
              "name": "ticketCount",
              "type": "uint256"
            },
            {
              "internalType": "uint256",
              "name": "ticketRemain",
              "type": "uint256"
            },
            {
              "internalType": "string",
              "name": "location",
              "type": "string"
            },
            {
              "internalType": "string",
              "name": "description",
              "type": "string"
            },
            {
              "internalType": "string",
              "name": "imagepath",
              "type": "string"
            }
          ],
          "internalType": "struct EventContract.Event[]",
          "name": "",
          "type": "tuple[]"
        }
      ],
      "stateMutability": "view",
      "type": "function"
    },
    {
      "inputs": [],
      "name": "getMyTickets",
      "outputs": [
        {
          "components": [
            {
              "internalType": "uint256",
              "name": "eventId",
              "type": "uint256"
            },
            {
              "internalType": "address",
              "name": "buyerId",
              "type": "address"
            },
            {
              "internalType": "uint256",
              "name": "numberOfTickets",
              "type": "uint256"
            }
          ],
          "internalType": "struct EventContract.Ticket[]",
          "name": "",
          "type": "tuple[]"
        }
      ],
      "stateMutability": "view",
      "type": "function"
    },
    {
      "inputs": [
        {
          "internalType": "uint256",
          "name": "ticketId",
          "type": "uint256"
        },
        {
          "internalType": "uint256",
          "name": "eventId",
          "type": "uint256"
        },
        {
          "internalType": "uint256",
          "name": "quantity",
          "type": "uint256"
        },
        {
          "internalType": "address",
          "name": "to",
          "type": "address"
        }
      ],
      "name": "transferTickets",
      "outputs": [],
      "stateMutability": "nonpayable",
      "type": "function"
    }
  ],
  "bytecode": "0x608060405234801561001057600080fd5b50612269806100206000396000f3fe6080604052600436106100555760003560e01c806304b8e0e01461005a578063298ec208146100835780633548124b1461009f57806385029b48146100ca578063c27a500d146100f3578063e1d10d851461011e575b600080fd5b34801561006657600080fd5b50610081600480360381019061007c919061149c565b610149565b005b61009d600480360381019061009891906115ae565b6104dc565b005b3480156100ab57600080fd5b506100b4610975565b6040516100c1919061186e565b60405180910390f35b3480156100d657600080fd5b506100f160048036038101906100ec91906118bc565b610ce1565b005b3480156100ff57600080fd5b50610108610f13565b604051610115919061186e565b60405180910390f35b34801561012a57600080fd5b50610133611243565b6040516101409190611a14565b60405180910390f35b42851161018b576040517f08c379a000000000000000000000000000000000000000000000000000000000815260040161018290611ab9565b60405180910390fd5b600083116101ce576040517f08c379a00000000000000000000000000000000000000000000000000000000081526004016101c590611b4b565b60405180910390fd5b60006001805490509050600085905060016040518061014001604052808481526020013373ffffffffffffffffffffffffffffffffffffffff1681526020018b81526020018981526020018381526020018781526020018781526020018681526020018a81526020018581525090806001815401808255809150506001900390600052602060002090600a02016000909190919091506000820151816000015560208201518160010160006101000a81548173ffffffffffffffffffffffffffffffffffffffff021916908373ffffffffffffffffffffffffffffffffffffffff16021790555060408201518160020190816102ca9190611d77565b50606082015181600301556080820151816004015560a0820151816005015560c0820151816006015560e08201518160070190816103089190611d77565b5061010082015181600801908161031f9190611d77565b506101208201518160090190816103369190611d77565b5050506000803373ffffffffffffffffffffffffffffffffffffffff1673ffffffffffffffffffffffffffffffffffffffff1681526020019081526020016000206040518061014001604052808481526020013373ffffffffffffffffffffffffffffffffffffffff1681526020018b81526020018981526020018381526020018781526020018781526020018681526020018a81526020018581525090806001815401808255809150506001900390600052602060002090600a02016000909190919091506000820151816000015560208201518160010160006101000a81548173ffffffffffffffffffffffffffffffffffffffff021916908373ffffffffffffffffffffffffffffffffffffffff16021790555060408201518160020190816104629190611d77565b50606082015181600301556080820151816004015560a0820151816005015560c0820151816006015560e08201518160070190816104a09190611d77565b506101008201518160080190816104b79190611d77565b506101208201518160090190816104ce9190611d77565b505050505050505050505050565b6000600183815481106104f2576104f1611e49565b5b90600052602060002090600a02016003015403610544576040517f08c379a000000000000000000000000000000000000000000000000000000000815260040161053b90611ec4565b60405180910390fd5b6001828154811061055857610557611e49565b5b90600052602060002090600a02016003015442106105ab576040517f08c379a00000000000000000000000000000000000000000000000000000000081526004016105a290611f30565b60405180910390fd5b6000600183815481106105c1576105c0611e49565b5b90600052602060002090600a020190508181600401546105e19190611f7f565b3414610622576040517f08c379a00000000000000000000000000000000000000000000000000000000081526004016106199061200d565b60405180910390fd5b8181600601541015610669576040517f08c379a000000000000000000000000000000000000000000000000000000000815260040161066090612079565b60405180910390fd5b60006001848154811061067f5761067e611e49565b5b90600052602060002090600a020160010160009054906101000a900473ffffffffffffffffffffffffffffffffffffffff1673ffffffffffffffffffffffffffffffffffffffff16346040516106d4906120ca565b60006040518083038185875af1925050503d8060008114610711576040519150601f19603f3d011682016040523d82523d6000602084013e610716565b606091505b505090508061075a576040517f08c379a00000000000000000000000000000000000000000000000000000000081526004016107519061212b565b60405180910390fd5b8282600601600082825461076e919061214b565b9250508190555060005b6000803373ffffffffffffffffffffffffffffffffffffffff1673ffffffffffffffffffffffffffffffffffffffff168152602001908152602001600020805490508110156108b557846000803373ffffffffffffffffffffffffffffffffffffffff1673ffffffffffffffffffffffffffffffffffffffff168152602001908152602001600020828154811061081257610811611e49565b5b90600052602060002090600a020160000154036108a257836000803373ffffffffffffffffffffffffffffffffffffffff1673ffffffffffffffffffffffffffffffffffffffff168152602001908152602001600020828154811061087a57610879611e49565b5b90600052602060002090600a0201600601600082825461089a919061214b565b925050819055505b80806108ad9061217f565b915050610778565b50600260405180606001604052808681526020013373ffffffffffffffffffffffffffffffffffffffff1681526020018581525090806001815401808255809150506001900390600052602060002090600302016000909190919091506000820151816000015560208201518160010160006101000a81548173ffffffffffffffffffffffffffffffffffffffff021916908373ffffffffffffffffffffffffffffffffffffffff16021790555060408201518160020155505050505050565b60606000803373ffffffffffffffffffffffffffffffffffffffff1673ffffffffffffffffffffffffffffffffffffffff168152602001908152602001600020805480602002602001604051908101604052809291908181526020016000905b82821015610cd857838290600052602060002090600a020160405180610140016040529081600082015481526020016001820160009054906101000a900473ffffffffffffffffffffffffffffffffffffffff1673ffffffffffffffffffffffffffffffffffffffff1673ffffffffffffffffffffffffffffffffffffffff168152602001600282018054610a6990611b9a565b80601f0160208091040260200160405190810160405280929190818152602001828054610a9590611b9a565b8015610ae25780601f10610ab757610100808354040283529160200191610ae2565b820191906000526020600020905b815481529060010190602001808311610ac557829003601f168201915b5050505050815260200160038201548152602001600482015481526020016005820154815260200160068201548152602001600782018054610b2390611b9a565b80601f0160208091040260200160405190810160405280929190818152602001828054610b4f90611b9a565b8015610b9c5780601f10610b7157610100808354040283529160200191610b9c565b820191906000526020600020905b815481529060010190602001808311610b7f57829003601f168201915b50505050508152602001600882018054610bb590611b9a565b80601f0160208091040260200160405190810160405280929190818152602001828054610be190611b9a565b8015610c2e5780601f10610c0357610100808354040283529160200191610c2e565b820191906000526020600020905b815481529060010190602001808311610c1157829003601f168201915b50505050508152602001600982018054610c4790611b9a565b80601f0160208091040260200160405190810160405280929190818152602001828054610c7390611b9a565b8015610cc05780601f10610c9557610100808354040283529160200191610cc0565b820191906000526020600020905b815481529060010190602001808311610ca357829003601f168201915b505050505081525050815260200190600101906109d5565b50505050905090565b600060018481548110610cf757610cf6611e49565b5b90600052602060002090600a02016003015403610d49576040517f08c379a0000000000000000000000000000000000000000000000000000000008152600401610d4090611ec4565b60405180910390fd5b60018381548110610d5d57610d5c611e49565b5b90600052602060002090600a0201600301544210610db0576040517f08c379a0000000000000000000000000000000000000000000000000000000008152600401610da790611f30565b60405180910390fd5b8160028581548110610dc557610dc4611e49565b5b9060005260206000209060030201600201541015610e18576040517f08c379a0000000000000000000000000000000000000000000000000000000008152600401610e0f90612213565b60405180910390fd5b8160028581548110610e2d57610e2c611e49565b5b90600052602060002090600302016002016000828254610e4d919061214b565b92505081905550600260405180606001604052808581526020018373ffffffffffffffffffffffffffffffffffffffff1681526020018481525090806001815401808255809150506001900390600052602060002090600302016000909190919091506000820151816000015560208201518160010160006101000a81548173ffffffffffffffffffffffffffffffffffffffff021916908373ffffffffffffffffffffffffffffffffffffffff16021790555060408201518160020155505050505050565b60606001805480602002602001604051908101604052809291908181526020016000905b8282101561123a57838290600052602060002090600a020160405180610140016040529081600082015481526020016001820160009054906101000a900473ffffffffffffffffffffffffffffffffffffffff1673ffffffffffffffffffffffffffffffffffffffff1673ffffffffffffffffffffffffffffffffffffffff168152602001600282018054610fcb90611b9a565b80601f0160208091040260200160405190810160405280929190818152602001828054610ff790611b9a565b80156110445780601f1061101957610100808354040283529160200191611044565b820191906000526020600020905b81548152906001019060200180831161102757829003601f168201915b505050505081526020016003820154815260200160048201548152602001600582015481526020016006820154815260200160078201805461108590611b9a565b80601f01602080910402602001604051908101604052809291908181526020018280546110b190611b9a565b80156110fe5780601f106110d3576101008083540402835291602001916110fe565b820191906000526020600020905b8154815290600101906020018083116110e157829003601f168201915b5050505050815260200160088201805461111790611b9a565b80601f016020809104026020016040519081016040528092919081815260200182805461114390611b9a565b80156111905780601f1061116557610100808354040283529160200191611190565b820191906000526020600020905b81548152906001019060200180831161117357829003601f168201915b505050505081526020016009820180546111a990611b9a565b80601f01602080910402602001604051908101604052809291908181526020018280546111d590611b9a565b80156112225780601f106111f757610100808354040283529160200191611222565b820191906000526020600020905b81548152906001019060200180831161120557829003601f168201915b50505050508152505081526020019060010190610f37565b50505050905090565b60606002805480602002602001604051908101604052809291908181526020016000905b828210156113035783829060005260206000209060030201604051806060016040529081600082015481526020016001820160009054906101000a900473ffffffffffffffffffffffffffffffffffffffff1673ffffffffffffffffffffffffffffffffffffffff1673ffffffffffffffffffffffffffffffffffffffff16815260200160028201548152505081526020019060010190611267565b50505050905090565b6000604051905090565b600080fd5b600080fd5b600080fd5b600080fd5b6000601f19601f8301169050919050565b7f4e487b7100000000000000000000000000000000000000000000000000000000600052604160045260246000fd5b6113738261132a565b810181811067ffffffffffffffff821117156113925761139161133b565b5b80604052505050565b60006113a561130c565b90506113b1828261136a565b919050565b600067ffffffffffffffff8211156113d1576113d061133b565b5b6113da8261132a565b9050602081019050919050565b82818337600083830152505050565b6000611409611404846113b6565b61139b565b90508281526020810184848401111561142557611424611325565b5b6114308482856113e7565b509392505050565b600082601f83011261144d5761144c611320565b5b813561145d8482602086016113f6565b91505092915050565b6000819050919050565b61147981611466565b811461148457600080fd5b50565b60008135905061149681611470565b92915050565b600080600080600080600060e0888a0312156114bb576114ba611316565b5b600088013567ffffffffffffffff8111156114d9576114d861131b565b5b6114e58a828b01611438565b975050602088013567ffffffffffffffff8111156115065761150561131b565b5b6115128a828b01611438565b96505060406115238a828b01611487565b95505060606115348a828b01611487565b94505060806115458a828b01611487565b93505060a088013567ffffffffffffffff8111156115665761156561131b565b5b6115728a828b01611438565b92505060c088013567ffffffffffffffff8111156115935761159261131b565b5b61159f8a828b01611438565b91505092959891949750929550565b600080604083850312156115c5576115c4611316565b5b60006115d385828601611487565b92505060206115e485828601611487565b9150509250929050565b600081519050919050565b600082825260208201905092915050565b6000819050602082019050919050565b61162381611466565b82525050565b600073ffffffffffffffffffffffffffffffffffffffff82169050919050565b600061165482611629565b9050919050565b61166481611649565b82525050565b600081519050919050565b600082825260208201905092915050565b60005b838110156116a4578082015181840152602081019050611689565b60008484015250505050565b60006116bb8261166a565b6116c58185611675565b93506116d5818560208601611686565b6116de8161132a565b840191505092915050565b600061014083016000830151611702600086018261161a565b506020830151611715602086018261165b565b506040830151848203604086015261172d82826116b0565b9150506060830151611742606086018261161a565b506080830151611755608086018261161a565b5060a083015161176860a086018261161a565b5060c083015161177b60c086018261161a565b5060e083015184820360e086015261179382826116b0565b9150506101008301518482036101008601526117af82826116b0565b9150506101208301518482036101208601526117cb82826116b0565b9150508091505092915050565b60006117e483836116e9565b905092915050565b6000602082019050919050565b6000611804826115ee565b61180e81856115f9565b9350836020820285016118208561160a565b8060005b8581101561185c578484038952815161183d85826117d8565b9450611848836117ec565b925060208a01995050600181019050611824565b50829750879550505050505092915050565b6000602082019050818103600083015261188881846117f9565b905092915050565b61189981611649565b81146118a457600080fd5b50565b6000813590506118b681611890565b92915050565b600080600080608085870312156118d6576118d5611316565b5b60006118e487828801611487565b94505060206118f587828801611487565b935050604061190687828801611487565b9250506060611917878288016118a7565b91505092959194509250565b600081519050919050565b600082825260208201905092915050565b6000819050602082019050919050565b606082016000820151611965600085018261161a565b506020820151611978602085018261165b565b50604082015161198b604085018261161a565b50505050565b600061199d838361194f565b60608301905092915050565b6000602082019050919050565b60006119c182611923565b6119cb818561192e565b93506119d68361193f565b8060005b83811015611a075781516119ee8882611991565b97506119f9836119a9565b9250506001810190506119da565b5085935050505092915050565b60006020820190508181036000830152611a2e81846119b6565b905092915050565b600082825260208201905092915050565b7f596f752063616e206f7267616e697a65206576656e7420666f7220667574757260008201527f6520646174650000000000000000000000000000000000000000000000000000602082015250565b6000611aa3602683611a36565b9150611aae82611a47565b604082019050919050565b60006020820190508181036000830152611ad281611a96565b9050919050565b7f596f752063616e206f7267616e697a65206576656e74206f6e6c79206966207960008201527f6f7520637265617465206d6f7265207468656e2030207469636b657473000000602082015250565b6000611b35603d83611a36565b9150611b4082611ad9565b604082019050919050565b60006020820190508181036000830152611b6481611b28565b9050919050565b7f4e487b7100000000000000000000000000000000000000000000000000000000600052602260045260246000fd5b60006002820490506001821680611bb257607f821691505b602082108103611bc557611bc4611b6b565b5b50919050565b60008190508160005260206000209050919050565b60006020601f8301049050919050565b600082821b905092915050565b600060088302611c2d7fffffffffffffffffffffffffffffffffffffffffffffffffffffffffffffffff82611bf0565b611c378683611bf0565b95508019841693508086168417925050509392505050565b6000819050919050565b6000611c74611c6f611c6a84611466565b611c4f565b611466565b9050919050565b6000819050919050565b611c8e83611c59565b611ca2611c9a82611c7b565b848454611bfd565b825550505050565b600090565b611cb7611caa565b611cc2818484611c85565b505050565b5b81811015611ce657611cdb600082611caf565b600181019050611cc8565b5050565b601f821115611d2b57611cfc81611bcb565b611d0584611be0565b81016020851015611d14578190505b611d28611d2085611be0565b830182611cc7565b50505b505050565b600082821c905092915050565b6000611d4e60001984600802611d30565b1980831691505092915050565b6000611d678383611d3d565b9150826002028217905092915050565b611d808261166a565b67ffffffffffffffff811115611d9957611d9861133b565b5b611da38254611b9a565b611dae828285611cea565b600060209050601f831160018114611de15760008415611dcf578287015190505b611dd98582611d5b565b865550611e41565b601f198416611def86611bcb565b60005b82811015611e1757848901518255600182019150602085019450602081019050611df2565b86831015611e345784890151611e30601f891682611d3d565b8355505b6001600288020188555050505b505050505050565b7f4e487b7100000000000000000000000000000000000000000000000000000000600052603260045260246000fd5b7f4576656e7420646f6573206e6f74206578697374000000000000000000000000600082015250565b6000611eae601483611a36565b9150611eb982611e78565b602082019050919050565b60006020820190508181036000830152611edd81611ea1565b9050919050565b7f4576656e742068617320616c7265616479206f63637572650000000000000000600082015250565b6000611f1a601883611a36565b9150611f2582611ee4565b602082019050919050565b60006020820190508181036000830152611f4981611f0d565b9050919050565b7f4e487b7100000000000000000000000000000000000000000000000000000000600052601160045260246000fd5b6000611f8a82611466565b9150611f9583611466565b9250828202611fa381611466565b91508282048414831517611fba57611fb9611f50565b5b5092915050565b7f4574686572206973206e6f7420656e6f75676800000000000000000000000000600082015250565b6000611ff7601383611a36565b915061200282611fc1565b602082019050919050565b6000602082019050818103600083015261202681611fea565b9050919050565b7f6e6f7420656e6f756768207469636b6574730000000000000000000000000000600082015250565b6000612063601283611a36565b915061206e8261202d565b602082019050919050565b6000602082019050818103600083015261209281612056565b9050919050565b600081905092915050565b50565b60006120b4600083612099565b91506120bf826120a4565b600082019050919050565b60006120d5826120a7565b9150819050919050565b7f4661696c656420746f2073656e64204574686572000000000000000000000000600082015250565b6000612115601483611a36565b9150612120826120df565b602082019050919050565b6000602082019050818103600083015261214481612108565b9050919050565b600061215682611466565b915061216183611466565b925082820390508181111561217957612178611f50565b5b92915050565b600061218a82611466565b91507fffffffffffffffffffffffffffffffffffffffffffffffffffffffffffffffff82036121bc576121bb611f50565b5b600182019050919050565b7f596f7520646f206e6f74206861766520656e6f756768207469636b6574730000600082015250565b60006121fd601e83611a36565b9150612208826121c7565b602082019050919050565b6000602082019050818103600083015261222c816121f0565b905091905056fea2646970667358221220601d786b1dc223533713c0f5bcddda48c343aac0ba14e699f31d1bc61603aa5e64736f6c63430008120033",
  "linkReferences": {},
  "deployedLinkReferences": {}
}